:020000040001F9
:10B00000202F0020D5B00100EFB00100F1B0010009
:10B010000000000000000000000000000000000030
:10B02000000000000000000000000000F3B001007C
:10B030000000000000000000F5B00100F7B00100C2
:10B0400039B30100F9B0010075B40100F9B0010095
:10B05000F9B0010000000000A5B10100F9B0010045
:10B06000F9B00100F9B00100F9B00100F9B0010038
:10B07000F9B00100F9B00100F9B00100F9B0010028
:10B08000F9B001008DB30100F9B00100F9B0010081
:10B09000ADB30100F9B00100B5B30100F9B0010092
:10B0A000F9B00100F9B0010000000000000000004C
:10B0B0000000000000000000000000000000000090
:10B0C0000348854600F05CF800480047D1CB0100FA
:10B0D000202F00200321094802680A430260084823
:10B0E00002680A4302600748804707480047FEE7B6
:10B0F000FEE7FEE7FEE7FEE7FEE70000240500406E
:10B1000054050040D5B30100C1B0010030B50B4675
:10B11000014600202022012409E00D46D5409D4231
:10B1200005D31D469540491B2546954040191546B7
:10B13000521E002DF1DC30BD03460B439B0703D0AC
:10B1400009E008C9121F08C0042AFAD203E00B78EC
:10B150000370401C491C521EF9D27047D2B201E064
:10B160000270401C491EFBD270470022F6E710B562
:10B1700013460A4604461946FFF7F0FF204610BD65
:10B18000064C0125064E05E0E36807CC2B430C3C3A
:10B1900098471034B442F7D3FFF796FFB8E10100A7
:10B1A000D8E10100F0B50025FF268BB0013601245F
:10B1B0002F460195304602F0E7F9002807D04848AD
:10B1C0004068204203D0304602F0D6F92543361DB0
:10B1D00064007F1CB6B2042FECD3FF247D342046DC
:10B1E00002F0D2F9002807D0204602F0C5F9600726
:10B1F00005433C48006901903B4C280714D00127C7
:10B2000000262F420CD03948B2001118086909698C
:10B21000C004C00E8903A258890F002A00D09047AD
:10B220007F00761C042EECD3002D57DA0020059009
:10B23000401E4DE0A119403108788506AD0E42B29E
:10B24000521C39D00121A940089A0091114233D0F3
:10B2500080090390284601F0FFF9800020580490EF
:10B26000002802D10398032826D1039800990328C7
:10B2700002D10598084305901D4AA800801800686F
:10B28000019A8003800F114202D0022802D013E0FD
:10B29000032811D10399032907D102281CD00221C8
:10B2A000284602F035F97F1CFFB20498002803D02D
:10B2B000049A284603999047761C042EBAD3002F8F
:10B2C0000CD0084800690199884207D00190059880
:10B2D00000273E460890ADE70321E1E70BB0F0BD43
:10B2E000006300400005005010260020006500406B
:10B2F000000700508307FF22DB0E9A408907090EE2
:10B30000994000280BDA0007000F08388308084826
:10B310009B001818C36993430B43C36170478308AC
:10B3200004489B001B181868904308431860704736
:10B3300000ED00E000E400E0F8B5FF20013001F08E
:10B34000CCFD002401250E4E0E4F002807D00E48DC
:10B3500004600120B0607D70002001F085F9FF20BD
:10B36000053001F0BAFD002808D00748001D046030
:10B370000220B060BD70012001F076F9F8BD000038
:10B3800000030040FC2500200001004010B50649E4
:10B390000020086048608860C86003494039086040
:10B3A000486002F03DFC10BD4011014010B502F0B4
:10B3B000A9FB10BD10B506484068002805D080479D
:10B3C000002801D000F01CFA10BD01F0CFFA10BD2A
:10B3D000A420002010B501F017FB002805D01F495C
:10B3E0001D484860C8131E4988611E48018CC9B2B7
:10B3F00001290BD1828C120708D1028D1206120F7F
:10B40000042A03D1828D1206120F0AD0012921D1FC
:10B41000818C09071ED1018D0906090F0A2904D064
:10B4200007E0114A01219160F5E7828D1206120FA3
:10B4300005D00D290ED1808D0006000F0AD10B48D2
:10B440000168012904D00A49016001680129FCD181
:10B45000C021416110BD0000DFFF07C000050040B2
:10B46000006C0040C00F00F00006004000EC0640F9
:10B470007593000010B50249024802F0F5FC10BDBA
:10B48000582600200020004010B5024A024900F072
:10B490002FF810BDF7C80100A020002030B474467A
:10B4A000641E2578641CAB4200D21D46635D5B00C0
:10B4B000E31830BC184702E008C8121F08C1002A70
:10B4C000FAD170477047002001E001C1121F002A25
:10B4D000FBD17047202804DA012181400348014252
:10B4E00001D001207047002070470000FC06FFBC1F
:10B4F000F8B516460F460446002503E03946B04726
:10B50000641C6D1C20780028F8D12846F8BDF7B5DA
:10B5100084B0064600251788158020300290407BB5
:10B520001446002806D03A462146059800F030FD22
:10B53000050009D1B078002823D0059886462088D8
:10B54000001DB84202D90C2007B0F0BD684679DF73
:10B550000028F9D1218803207246505420881921EF
:10B56000401C80B22080115420887146401C80B25B
:10B57000208041186846008802F00AFD21884018A2
:10B580002080F078002817D0218803230A46F3563C
:10B59000C91C0598B942D6D80221815421880122BC
:10B5A000491C89B2218042542188491C89B22180DA
:10B5B00043542088401C20807068002817D02188C0
:10B5C0000023C3560A46C91C0598B942BBD80221BC
:10B5D000815421880A22491C89B221804254218841
:10B5E000491C89B2218043542088401C2080308926
:10B5F00000280AD000943046019706220221083024
:10B60000059B02F013FD05009ED1308A00280AD068
:10B61000009430460197072203211030059B02F069
:10B6200005FD050090D1308B00280AD000943046EB
:10B630000197152214211830059B02F0F7FC050034
:10B6400082D1306A002806D03B462246059901F097
:10B6500073F80500D8D1706A002806D03B46224610
:10B66000059901F0B7FB0500CED10298007B0028B8
:10B6700007D03B4622463046059902F033F90500D3
:10B68000C2D13078002807D03B4622463046059983
:10B6900001F0D4FB0500B7D1284655E7174A002131
:10B6A000535C002B01D0012203E0491C0629F7D38B
:10B6B00000221349012806D002280BD0032810D0FD
:10B6C000042818D112E04878002803D0002A01D0BD
:10B6D000012070478878002803D0002A01D002207A
:10B6E0007047C878002801D00320704708790028E7
:10B6F00001D0042070470020704700002520002062
:10B700001824002010B501220221002000F010FEB4
:10B71000002801D0072812D107220221012000F0C1
:10B7200007FE002801D0072809D100210A22084677
:10B7300000F0FEFD002801D0072800D1002010BD38
:10B7400010B5162001F00CFF10BD000070B50024EC
:10B75000064D06E06968E000085C012101F04CFC40
:10B76000641C28788442F5D3002070BD502000204E
:10B77000F8B515460C460646052A01D20720F8BD45
:10B7800001F010FD002803D101F0DEFC0028F6D105
:10B79000104900204E600C70C8608D6008610E4D2D
:10B7A0000DE0E00069688019009181786A46517067
:10B7B00000780A4A694601F06BFC0028DFD1204678
:10B7C000641EE4B20028ECD1054A0021024800F0D2
:10B7D0004DF8F8BD5020002090E101001DC9010086
:10B7E00031C80100BFF34F8F04490348C860BFF35D
:10B7F0004F8F00BFFDE700000400FA0500ED00E0F8
:10B800000EB50021029000916A4601910148FFF7B0
:10B81000E9FF0EBD0140000010B58268C368934285
:10B8200003D001F055F8002010BD052010BD0029FF
:10B8300006D0002A02D0531E134203D009207047BD
:10B840000E2070470160838000218160C16008463E
:10B85000704710B58268C3689A1A83889A4203D8E1
:10B8600001F040F8002010BD042010BD094B5B68BA
:10B87000002B07D0002A07D0002805D00068037CE1
:10B88000002B03D0082070470720704741744261A5
:10B890000020704774200020FFB507469007002560
:10B8A00081B01E461446002825D1002C23D001F07B
:10B8B0003BFF3046114EF060304610300570457049
:10B8C0000299817044607560357001240C48757070
:10B8D0002405046003211420FFF70CFD09480460CF
:10B8E000094CA76003211120FFF704FD6068B060D8
:10B8F000002005B0F0BD0720FBE700006420002019
:10B9000080E200E000E100E000150140FEB51F4BC1
:10B910005B68002B30D000282ED0052901D20720EB
:10B92000FEBD4369002B27D0437C012B26D0002786
:10B93000029104460025694616460D70684600F0DF
:10B94000D1F801A802F05CFB002819D00121017098
:10B950000F49446049688160029907614661C1608E
:10B9600068460A49007948706846007800F0D8F8BF
:10B9700002F00AF92846FEBD0820FEBD0F46D7E7B3
:10B9800068460425007800F0CBF8F3E77420002027
:10B990000015014010B50849496800290AD000285F
:10B9A00008D04169002905D000210174022102F06C
:10B9B00013F910BD082010BD7420002070B50B4D88
:10B9C0000146AE780A48FFF727FF0446002E0AD04A
:10B9D0000020A870691C0122C81D01F05DFC002830
:10B9E00001D0FFF70DFF204670BD0000842000202D
:10B9F00094260020F0B5274E89B01F460D0004465E
:10BA000072601CD0A888296882B22348FFF70FFF14
:10BA1000002815D1A889A96882B21F481030FFF705
:10BA200006FF00280CD120221C496846FFF784FB42
:10BA300060690690207C002804D0012103E00720E3
:10BA400009B0F0BD0021684601750777607C0028C9
:10BA500000D00E2069464875E0680290A068039007
:10BA600020680190606800900A480D4A083001F093
:10BA7000A1FB0028E4D1B0702068401CE0D005484C
:10BA8000083001F037FC03490122491CC81D01F0B0
:10BA900003FCD5E7842000209426002098E10100D3
:10BAA000B9DD010010B501460C48FFF7D2FE0400D5
:10BAB00012D10B4801F0E8FC00280DD108490748D5
:10BAC0000839FFF7A9FE002806D1054901220839E7
:10BAD000034801F079FC0446204610BDA42600204E
:10BAE0008C20002030B5EFF3108172B6094A5468FB
:10BAF0000123002C04D00370002900D162B630BDB0
:10BB00005360054B1D68054C254015601C600022E4
:10BB10000270F1E79820002080E100E0FC06FFBC05
:10BB200008494A68002A0CD000280AD1EFF3108097
:10BB300072B60A68044B1A6000224A60002800D1DD
:10BB400062B670479820002000E100E0F0B50C4696
:10BB500093B01F216A461180072600279180002894
:10BB600009D0C17849070DD502A9FFF7D0FC0028FC
:10BB700009D102AD01E000251780002C0ED0E0783D
:10BB8000002802D0304613B0F0BD01AA0AA9204611
:10BB9000FFF7BDFC0028F6D10AAA02E068460022A1
:10BBA000878068468088C3B268460088C1B228464C
:10BBB00072DFE8E7FFB581B01E460A9F1346040016
:10BBC00047D0002B45D0504D012028700020E87050
:10BBD000202219464D48FFF7AFFA00206F61C0439D
:10BBE0002E612881284607211830FFF7BEFA474802
:10BBF00038212030FFF7B9FA44482178203001700D
:10BC0000A1788170E178C170617841703F4A6569BF
:10BC100023695563114613632031E368A268CB6042
:10BC20008A603A49E369A269CB638A63616A002941
:10BC30001AD0014638310246443241628A60636A52
:10BC40001B880B80616A436A898899800021436A56
:10BC500007E00E2005B0F0BD656AAD686D5C555417
:10BC6000491C9D888D42F7D8A16A00291CD0274A1B
:10BC7000903211460C398A608162A36A9B888B805E
:10BC8000A16A836A098819800021836A04E0A56A91
:10BC9000AD686D5C5554491C9D888D42F7D82C21A8
:10BCA0000A5D1A4940310A73216A002909D01649F0
:10BCB0000A310162226A52884A80216A026A09882E
:10BCC00011806168002900D04160104A0E490020AF
:10BCD000AF322031C3001B1A85009B180C68401C32
:10BCE00063510828F6DB094A0020E732030185008A
:10BCF0009B188C68401C63510828F7DB03480299A5
:10BD00002030FFF723FFA5E70C2000201824002097
:10BD100010B50188134C102915D0112919D01B29F1
:10BD200010D1007A00280DD1E0780521401CFFF7E2
:10BD3000EDF9084600F036F8002803D061690029C3
:10BD400000D0884710BD817D0129FBD180882081EA
:10BD500010BD00216171808821898842F8D10120BD
:10BD6000E8E700000C20002010B574DF0B4C012028
:10BD700060710B490620C87000210948FFF7E6FEF4
:10BD8000002809D1E07800F00DF8002803D061699F
:10BD9000002900D08847002010BD00000C200020A2
:10BDA00038240020F1B53F4C88B0207800280AD014
:10BDB0000898E07006A800F0A5FD06980125002867
:10BDC00004D065706AE0082009B0F0BD354800274E
:10BDD00007211830FFF7C9F9334E7078002802D0D8
:10BDE000E078012807D0B07800280CD0E07801284E
:10BDF00001D0022807D12169002903D0257108202C
:10BE0000884700E027710898FFF748FCE070216937
:10BE1000002909D0032801D0042805D13078002852
:10BE200002D06079002811D0A77118216846FFF769
:10BE30009CF9684607700772E1781A480B001830C1
:10BE4000FFF72CFB052E080F191D2000A5710720F8
:10BE50008847EAE7A5700190684605704782078227
:10BE600013E00221A170019068460570B1894182FA
:10BE70003189018209E0684601F07CFD02E06846F4
:10BE800001F0A4FDE078002803D0684673DF0028A5
:10BE90009AD12169002901D0A0788847002093E732
:10BEA000A770F6E70C2000201824002070B5054686
:10BEB00001461C220E48FFF73FF90E4C0026267063
:10BEC0002968002906D00822201DFFF735F9201D1A
:10BED0007ADF02E00748001D7BDF002807D1401E03
:10BEE00060806670044A00210448FFF7BFFC70BD03
:10BEF000E02500203C2000209DDF01007CE10100C6
:10BF0000F8B5214C0146028800261E48E589102A12
:10BF100013D01E4F112A1FD0122A2BD0502A1AD10B
:10BF2000881DC988A94216D14189022913D10C3034
:10BF300000F0FEF800280CD112E08A880446428006
:10BF4000104808220C301831FFF7F6F86670002D03
:10BF500001D100F039FCF8BD0021C9434180467091
:10BF60003868FFF717FD0028F5D0A1690029F2D045
:10BF70008847F8BD034808220C300831FFF7DCF889
:10BF8000E7E700003C200020E02500207CE10100E4
:10BF90007CB5054608880C460930904201D90C2032
:10BFA0007CBD684671DF0028FAD1218808206854DA
:10BFB00020881B21401C80B220802954208800A9A1
:10BFC000401C80B22080401906220131FFF7B4F8EE
:10BFD00020886946801D80B220800978002900D021
:10BFE000012129542088401C208000207CBD0000B5
:10BFF00010B50446FFF784FF2146064800F040F8DC
:10C00000204601F001FB2046FFF782FE204600F0AB
:10C01000C1F810BD9023002030B5184B0D46040028
:10C020000FCB85B003936B4607C324D0002D22D0DD
:10C030000020C043A0822868A0610020A07521468E
:10C04000684663DF002814D1217868468174012195
:10C050000182A21C04A90120A0DF002809D12946E1
:10C06000204601F096FB002803D12946204601F026
:10C0700026FE05B030BD0E20FBE7000080E1010088
:10C0800010B500281BD0002919D00A88102A17D013
:10C09000112A17D0502A12D104468A1DC888238A33
:10C0A0001231984202D15389022B0FD0A3889842B3
:10C0B00005D1A369002B02D052892046984710BDB4
:10C0C000898801E00021C943818210BD084600F043
:10C0D0002FF8002800D00120A07510BD07B584B04E
:10C0E00000280DD0828A114B9A420BD0827D002A03
:10C0F00008D06A46128B142A06D9072007B000BD63
:10C100000E20FBE70820F9E700220092019202923C
:10C11000039282896B461A80039106A9029101213C
:10C120009970808A6946A6DFE8E70000FFFF0000FB
:10C130004178027808021043C007C00F7047000022
:10C140007CB5134E00250C463060002918D0694696
:10C15000002000F0B5F8002819D101A9012000F055
:10C16000AFF8002813D1684601790020002901D0DA
:10C17000022004E069460978002900D00B202070D5
:10C180007068002802D1FFF7BDFA054628467CBD3D
:10C190000420002010B51C4C0188606810290DD0C7
:10C1A00011290AD1401E606007D1FFF7ABFA0028C1
:10C1B00003D02168002900D0884710BD00281ED177
:10C1C00000210122084600F0B3F8002801D007281A
:10C1D00011D107220221012000F0AAF8002801D085
:10C1E000072808D104220221002000F0A1F800282D
:10C1F00005D0072803D02168002900D0884760684F
:10C20000401C606010BD00000420002010B5032019
:10C2100000F0CCF9002801D0062800D1002010BD84
:10C22000F8B507460024234802E0641C042C1AD207
:10C23000A2008258BA42F8D1042C14D21D481E4ED6
:10C240000C38002929D001290ED002290BD1600019
:10C25000201880194578002D05D01848C16800299C
:10C2600001D028468847F8BD61006118755C8E19B9
:10C27000717800290CD011490A224968806851431D
:10C280000E4A521CFFF742FB002801D10B484770B1
:10C290000A48B17810300155DDE78068FFF77AFB76
:10C2A00006486100611810308919005D8D78A84238
:10C2B000D1D0F8BD4CE10100EC230020F01F00209C
:10C2C00004280CD2074A1269074B80001B5C01202E
:10C2D0009840904300D00120087000207047002053
:10C2E000FAE70000000500504CE10100014610B5DE
:10C2F0000D480429408806D007290CD00A2901D10D
:10C3000001F08EFB10BD132176DF09E00028F9D083
:10C31000FFF776FA10BD05498842FBD1FFF724FDEF
:10C320000828F3D110BD0000E81F0020FFFF000027
:10C3300070B50023042811D2440004190D4D012AC0
:10C3400002D101290DD0002246008019094E801922
:10C3500000290CD0012906D0022906D0072318464F
:10C3600070BD0D30C2B22A55F9E74270F7E782700E
:10C37000F5E70000EC23002010B5054A0146127ACB
:10C380000020D20702D0084600F058F810BD000087
:10C39000F01F0020F8B50646224800248660C260DF
:10C3A00041600F46B00720D50025012211462846DE
:10C3B000FFF7BEFF6D1C0446042D02D2002CF4D002
:10C3C00013E0002C11D17A0804211748FFF7D0F9A7
:10C3D00004000AD1FFF7BAF9040006D11248134A43
:10C3E00000211438FFF742FA0446F00706D0152062
:10C3F00001F0AEF80F200E4940058861002C0ED1E7
:10C4000009480C4A00211C38FFF730FA040006D115
:10C410000548094A01211838FFF728FA0446204642
:10C42000F8BD0000F01F00205CE10100E9C501003B
:10C430000005005051CA010041B70100F8B505469A
:10C440000026584C584F0300FFF728F8180D0F0F1F
:10C4500031404D627274787478727F7F7F7F7F9EE7
:10C4600072A4A87272A2207092E0152001F068F800
:10C47000002805D0152001F05BF8022D0BD00CE050
:10C48000152001F065F8022D02D1E120C00006E080
:10C490007D20400103E0C82001E0FF20913025709D
:10C4A0006421FEF733FE61684143002227E0152036
:10C4B00001F046F8002803D0152001F039F8EAE72A
:10C4C000152001F045F819204001E8E7152001F09A
:10C4D00037F8002803D0152001F02AF8DDE71520F1
:10C4E00001F036F8D4E7152001F02AF800280BD027
:10C4F000152001F01DF825706068410000223868A1
:10C50000FFF704FA064643E0152001F021F8F2E7B0
:10C51000152001F015F8002806D0152001F008F8C4
:10C52000257000226168EAE7152001F011F8F7E7AD
:10C53000152030E0162001F013F8F2E7162001F084
:10C540000FF8606881004118D8E77868FFF722FA91
:10C5500006461120401B01D0002E03D0162000F00B
:10C56000F7FF15E001280BD9C82148436421FEF7E5
:10C57000CDFD6168002241437868FFF7C7F90646A0
:10C58000162000F0D5FF03E0152000F0E1FF257034
:10C590003046F8BD162000F0CBFFF8E7152000F07C
:10C5A000C7FFF7E7F01F002040E10100F0B50021D0
:10C5B0000B4C0C4D03273F048A00A25892005619D9
:10C5C000326801238B40034000D00323BA431B048D
:10C5D00013433360491C0429EED30020F0BD000052
:10C5E0004CE101000007005010B500780221FFF770
:10C5F00017FE10BD0022D243830004490428CA500C
:10C6000002D308182030027770470000102600205F
:10C61000F0B50025ED43002A02D00023042601E0F6
:10C62000042308260B4C04E09F00E7597F1C04D02C
:10C630005B1CB342F8D32846F0BD26185DB2203605
:10C6400035709E00A151002AF5D1E11820310877FC
:10C65000F1E70000102600200249091820200856A2
:10C66000704700001026002070B5084C050009D066
:10C6700010342168002907D00868206049682846DE
:10C680008847F6E70834F4E770BD0000FC25002079
:10C69000F8B52348416800293ED00E6821494C680E
:10C6A00087688078E11B0D022D0AED1C002814D14B
:10C6B00001201D4A000450601B4A403A50601B494B
:10C6C000400008601A4908601A49012008602F20BC
:10C6D00000F00CFC124901208870B54200D23546AA
:10C6E000E81900020F4B000A403318600D4A5168E8
:10C6F000001B091B0902090A0002000AC91C814229
:10C7000009D9506818602F2000F0F0FB012007497C
:10C71000400480390860F8BD01F006F8F8BD00005B
:10C7200064200020001501404013014080E200E039
:10C7300000E100E000100140F8B5064610881446FC
:10C740008446801D0D46984201D90C20F8BD3288E0
:10C750000720062AFAD31927FF01184BBA4201D93C
:10C760009A42F3D171880629F0D3B94201D999428E
:10C77000ECD19A4203D0994201D08A42E6D80521F1
:10C780006046295420881221401C80B22080295400
:10C790002088401C80B220804119308801F0F8FBCD
:10C7A0002188401880B220804119708801F0F0FB88
:10C7B0002188401820800020F8BD0000FFFF000005
:10C7C00010B5FFF71DF810BDF8B5164800F00EF9CA
:10C7D000144D00260C3D144C002807D06169002937
:10C7E0001CD001206A461070684616E028780028A0
:10C7F00005D06169002911D0684606700DE068789F
:10C8000000280DD0A168094800220068FFF77EF8D3
:10C81000002803D0A169002900D088472E70F8BDF8
:10C820006168F0E748200020E02500207CE101005D
:10C83000F8B500260124154D23E06968F00047187B
:10C84000387821462A698140114218D08A432A61EA
:10C8500000F070FC3A782146EB689140194003469D
:10C86000934099420BD17978012901D0012100E050
:10C8700000217B684140002B01D010469847761C70
:10C88000F6B228788642D8D3F8BD000050200020A8
:10C8900010B50E4900230A784C78A24212D0521CDF
:10C8A000D2B20A70022A00D10B700A78074B9200AC
:10C8B00018339A580260886810180002000A8860CD
:10C8C000012010BD0360002010BD00006420002086
:10C8D000826883881A4003689A5C0A708168491CE0
:10C8E00081607047C26883881A4003689954C168A0
:10C8F000491CC160704710B50446C0B2FFF7D2F8BA
:10C90000204610BD002804D00349496E0160002074
:10C910007047032070470000B4260020F8B5074692
:10C92000104E0125BD403068FFF734F800280DD1C6
:10C930000D4C2069284207D1384600F0FBFB002847
:10C94000E06804D0284303E0A8432061F8BDA84371
:10C95000E0602069002228432061A1683068FEF76A
:10C96000D5FFF8BD90E1010050200020F8B51E4C25
:10C970002078002836D0E068002600280CD000255A
:10C98000607800282ED1684652DF052806D000289E
:10C9900006D0FEF735FF0BE00125F1E7012607E0A1
:10C9A000009800F0F3FA2169002901D00098884727
:10C9B000002D13D16078002814D160886946088062
:10C9C000A06861DF052804D0002804D0FEF718FF16
:10C9D00004E0012502E0E168A0688847002ECFD07E
:10C9E000002DE5D0F8BD0000A420002041880548B6
:10C9F0000288914204D34088814201D801207047C7
:10CA000000207047402000201048018CC9B2012945
:10CA100017D1818C090714D1018D09060A0F03D1A2
:10CA2000828D1206120F0ED0090F012903D1828DBB
:10CA30001206120F07D0032903D1808D0006000FC4
:10CA400001D000207047012070470000C00F00F0A7
:10CA500010B50448017AC90702D00078FFF7EEFC50
:10CA600010BD0000F01F0020F0B5284C2146103901
:10CA700048688B68227886469C46CF78667836E090
:10CA8000182353436168521CC918A378D2B2934249
:10CA900000D100220B78022B02D0032B27D123E0F8
:10CAA00003464D68194603E0A94204D00B46C96904
:10CAB00000291CD0F8E7002919D08B4208D1C069A1
:10CAC000002805D1124F0125BD600025AC46012785
:10CAD0000D68C969D961002909D00B685B190B6021
:10CAE00005E00174C06900E000210028F9D19642F8
:10CAF000C6D10649624610398A604860CF707045D9
:10CB000001D00120F0BD0020F0BD00007420002005
:10CB100000100140F8B52C4E0446706800250090C6
:10CB200041E0002C02D02046E46920E0264818238A
:10CB30001030017842684B43491CC9B2D2180170C9
:10CB40008378994200D105701178506801292CD161
:10CB5000017C002929D191684160D1688160116907
:10CB6000C16051698161F178002900D04560436856
:10CB7000B268164F991A0902090AB94202D28268AC
:10CB8000891806E0D11A09028268090A8A4202D984
:10CB9000511A016000E00560456001218560017463
:10CBA000C56100F0F9FF002CBBD1074810300178B7
:10CBB00040788142BAD171680098814201D0012049
:10CBC000F8BD0020F8BD000064200020FFFF7F00BA
:10CBD0000023A6B06C4A05211846FEF75DFE00282A
:10CBE00001D0FEF70DFE182268496846FEF7A4FA48
:10CBF000FF2101316648069040180791099108907D
:10CC00000323644A06A96846FEF7F4FE002801D013
:10CC1000FEF7F6FD604A61490320FFF7BBFB0028E1
:10CC200001D0FEF7EDFD69460020FFF789FA0028E4
:10CC300001D0FEF7E5FD6846007802287ED000208E
:10CC40006946087151485249001F00680590002349
:10CC500048225C3905A800F023FF002801D0FEF728
:10CC6000CFFD6A460121002000F002FF002801D01C
:10CC7000FEF7C6FD684600F0F1FE002801D0FEF781
:10CC8000BFFD474800F0E0FE002801D0FEF7B8FDE8
:10CC90001120694608720B2242A102A87CDF0028FD
:10CCA00001D0FEF7ADFD00240094102168460194E8
:10CCB00001803C214180FF2184809131C1807ADF55
:10CCC000002801D0FEF79CFD394800902E486946A7
:10CCD0007830FFF7A1F9002801D0FEF791FD382147
:10CCE00001A8FEF742FA022168460171847105210C
:10CCF000C17138210FA8FEF738FA012510A88581E7
:10CD00002C48149020211DA8FEF72FFA18A8C575ED
:10CD100040202190B4202290274B1DAA0FA90094F7
:10CD200001A8FEF747FF002801D0FEF769FD1C218E
:10CD30006846FEF71AFA0520C00300E01BE00190E8
:10CD40000F20000402900094032168460173C481FF
:10CD500004741A4805901A4806906846FFF7A6F82A
:10CD6000002801D0FEF74CFD16A0FEF78DFB032036
:10CD7000FFF718F802E0012062E748DF0028FCD046
:10CD8000FEF73EFDF9E700001823002028E101002E
:10CD90001821002059DD0100EDC20100CD0C00007A
:10CDA000F1BF01004E6F726469635F5541525400D8
:10CDB000B7D50100EC1F0020E7D50100D9D601004E
:10CDC000C1C701000D0A5541525420537461727459
:10CDD000210D0A0070B5144682880E46054620884B
:10CDE000111D4118921C994201D8FE2A01D90C202C
:10CDF00070BD521C32542088FF21401C80B220801C
:10CE000031542088401C80B220808119288801F08C
:10CE1000BFF82188401880B22080AA88002A09D053
:10CE2000A968002908D08019FEF786F92088A9880A
:10CE300040182080002070BD072070BDF8B50F4657
:10CE4000017814460546012902D16878002806D0E9
:10CE50002088821C9A422DD8012902D006E00720A2
:10CE6000F8BD69784118891C994223D8181A801E88
:10CE700086B2684606802188B81C081869467DDF9E
:10CE80000028EDD12878022805D169460988B142E9
:10CE900001D809210AE00821012805D16878B042AB
:10CEA00002D86A46108001E068460680684600881D
:10CEB000FE2801D90C20F8BD2288401CB8542088D7
:10CEC000401C80B22080395420886946401C208054
:10CED0000988401820800020F8BD012189074018EA
:10CEE0000068002800D001207047000000280FD003
:10CEF0000849094A096800BF00BF00BF00BF00BF62
:10CF000000BF00BF00BF914200D000BF401EF2D161
:10CF100070470000B82000200024F40010B50C4C2D
:10CF20002078002801D0852010BD0020A06060601E
:10CF30002061E060032100F02FF800F0DDFD012109
:10CF4000002801D1034881612170002010BD00003C
:10CF5000FC2500200005004038B500206946087017
:10CF60006846FEF7BFFD084C2078002801D1FFF786
:10CF7000D5FFE068401CE0600120A07068460078A2
:10CF8000FEF7CEFD38BD0000FC25002010B50028BE
:10CF900001D1FFF769FB10BD8207D30EFF229A4033
:10CFA0008907090E10B5994000280BDA03071B0FFB
:10CFB000083B9C080C4BA400E318DC6994430C4329
:10CFC000DC6107E08408094BA400E418236893435C
:10CFD0000B432360C106C90E012088400449086044
:10CFE0000449086010BD000000ED00E000E400E02E
:10CFF00080E200E000E100E0F3B581B00F46019867
:10D0000000F07AFB012400281D4E019817D0FFF78D
:10D0100023FB80192030007F8009032802D00128DB
:10D0200006D007E01748006901998C40204201D1E1
:10D03000022100E00321019800F06AFAFEBD00F031
:10D0400067FB0028FAD00198FFF706FB0546810030
:10D05000C81D0D4AF93089180A6980B222430A6155
:10D0600000F08AFA002FE9D00198FFF7F5FA800066
:10D0700030580028E2D00548AC404460FEBD0000B6
:10D0800010260020000500500065004000630040AD
:10D09000FEB5044623480E460019202141560027BC
:10D0A000C8171346401C01D0082738E0F27819460B
:10D0B0002046FFF7ADFA0546401C2FD0B078002877
:10D0C00007D01948A1000918086802229043086097
:10D0D00007E000217378204600910A46019100F094
:10D0E000DFF9F078002810D01048AA001018317825
:10D0F00002690F4B1A400261E206D20C8907890BC4
:10D100000A4301690A43026109E00648327840197E
:10D110002030017F92011143017700E00427384657
:10D12000FEBD0000102600200007005000650040F2
:10D13000FFE0FCFF03490969C140C807C00F00D0E8
:10D14000012070470005005070B5144D2879002863
:10D1500001D0082070BD114900204039421E0B1833
:10D160002033401CC0B21A702028F8D30024204677
:10D17000FFF740FA641CE4B2082CF8D30321062020
:10D18000FFF70AFFFF207D3000F0F6F90120044987
:10D19000C007486001202871002070BD5026002083
:10D1A0000063004002480079002800D00120704749
:10D1B00050260020F7B505460C4600791C2148434F
:10D1C00032494618F07E002801D00820FEBD2078A4
:10D1D0000127394681402E488160206800F08DF992
:10D1E0000021606800F080F92A680520000212180A
:10D1F000A1695162617D227D2B6811431A18D166A5
:10D200002A680ACC1018C1604361207B083C0128C1
:10D2100013D10021A06800F067F9207B39468140D6
:10D220001B488160E06800F068F929680522120255
:10D230008918E368A0688B600861029870602169B2
:10D240003160002814D0FF231D332A68217F00207D
:10D25000D050FF232A684533D050032328681B028F
:10D260000C4AC01842602868000B40B2FFF794FED9
:10D270000521286804220902401802600020F07588
:10D280003076B075F776B076FEBD000058260020E7
:10D290000005005080000200F8B503791C246343A8
:10D2A000134C81251C19032766680023AD003F023B
:10D2B000002E02D00668F619B560E67D002E0ED06D
:10D2C000237E002B07D06168002902D00068C019B6
:10D2D00045601120F8BD21610123227604E0E2754A
:10D2E0000025E1606576257600F01AF8F8BD0000AB
:10D2F0005826002070B5044600791C21074D48438C
:10D300004019807E002808D1204600F09BFA207941
:10D310001C22012150434019817670BD58260020FF
:10D32000F8B5044600791C21484326494518A87ED3
:10D33000184302D1204600F085FA6868002820686A
:10D3400007D0812103228900120280184160002049
:10D35000F8BDFF21453100224250FF2125312068D0
:10D3600000F01CF90646FF210931206800F016F98B
:10D370000090FF214531206800F010F90746009821
:10D3800038433043E9D03046384307D12946206836
:10D3900000F0ECF9E87D697E8842DED80020E8756F
:10D3A000002E01D00320F8BD002F01D00F20F8BDC2
:10D3B000A97E01200029216801D00860C7E74860E4
:10D3C000C5E700005826002070B505460C460079D8
:10D3D0001C21484308494318284600F055F8002806
:10D3E00001D0112070BD9A7500209C60988228465B
:10D3F00000F004F870BD000058260020F8B504467F
:10D4000000791C2148431F4900264518FF27206842
:10D410001D37C6512068012181602946206800F02F
:10D420003FFC6968002913D027E0FF270137FF215F
:10D430001D31206800F0B2F8002802D1A88AB84255
:10D44000F5D1A88AB84203D02946206800F028FC0C
:10D45000A88AA97D8842E8D3A98AC81FF9380ED0C6
:10D46000FF271D373946206800F098F80028F9D0CA
:10D4700020680121C1600020A8753046F8BD0F2644
:10D48000F9E700005826002000791C214843034991
:10D490004018807D002800D00120704758260020C9
:10D4A00030B552000A439900039C0A432102049DAF
:10D4B0000A4329040A43024980004018026030BD33
:10D4C0000007005030B552000A439900039C0A43FC
:10D4D0002102049D0A4329040A430249800040189E
:10D4E000026030BD000700501CB500220B460092C0
:10D4F00011460192FFF7E6FF1CBD1CB5002100910B
:10D500000B46012201911146FFF7DCFF1CBD000014
:10D51000820006481018026803231B049A43026025
:10D52000026809040A4302607047000000070050C7
:10D53000012181400148C160704700000005005092
:10D5400002490969C140C807C00F70470005005073
:10D5500001218140014881607047000000050050B2
:10D560000121044A814050680B4683439360084080
:10D57000D06070470005005002494018002101604A
:10D58000704700000060004003494018006801280F
:10D5900000D0002070470000006000404058002884
:10D5A00000D0012070470322120280184068084012
:10D5B00000D00120704770B516460D46002405E0E6
:10D5C000285DFEF76FFA0028FAD1641CB442F7D345
:10D5D0000D20FEF767FA0028FAD10A20FEF762FA5A
:10D5E0000028FAD170BD10B5002809D0032806D153
:10D5F0000220FEF7C1FE002801D0FEF701F910BDA0
:10D6000000F00EFA10BD000070B50446314D0088E0
:10D610006E8888B03A2838D00DDC022839D010281E
:10D6200013D011281AD0132822D100231A4685219D
:10D6300030467FDF26E051282FD052281DD05528B4
:10D6400016D1A088132176DF1CE00720FEF794FE98
:10D65000002801D0FEF7D4F8A08808E00020FEF7EB
:10D660008BFE002801D0FEF7CBF80020C043688075
:10D6700008B070BDFEF7C4F8FAE700231A46194651
:10D680003046A9DF0028F5D1F2E7A088132176DF24
:10D69000F8E7A088002167DFF4E71022A11D04A8A5
:10D6A000FDF74AFD6846017C0029E1D0007E042890
:10D6B00003D0062801D00528DAD1022908D001209C
:10D6C00069460870FF2083308880A088A8DFD9E7EA
:10D6D0000220F5E7E81F002010B50078002807D1E8
:10D6E00004483B21408876DF002801D0FEF788F807
:10D6F00010BD0000E81F00200449081820214156F1
:10D70000042901DB0120704700207047102600200B
:10D710000449081820214156042901D201207047EC
:10D72000002070471026002070B501240B496004CA
:10D7300008600B4940108860094940398860094DEC
:10D740006C602F20FFF7D2FBAC60074D00242F2028
:10D75000AC60FFF7CBFBAC7070BD000080E100E077
:10D7600040130140001001406420002030B5FF222A
:10D770000523CD7D002409321B02C318002D8450DF
:10D78000986905D04B7ECA68D054487E401C4876C4
:10D7900030BD70B500240546601C90B00007000F36
:10D7A00008A9103008940870601C0007000F1030A2
:10D7B00048708878F9263040801C88701C2101A8A8
:10D7C000FDF7D3FC694608791021084369460871C2
:10D7D000029408A80494059407940690287808A950
:10D7E000887103206946888411200094087048706D
:10D7F0008878F7213040801C0840EF21084001263E
:10D8000030436946887014210AA8FDF7AEFC09A8C8
:10D810000A9068460B9069460E8614204C868886CE
:10D820002B4668880C330AAA01A9A2DF10B070BD8C
:10D830001FB501246B461C701972019206C8684618
:10D8400090471FBDFF23253302680021D150FF23DD
:10D8500002680933D150006801210160704700005F
:10D8600010B50446FDF736FE00280CD0A007C00E08
:10D87000002C0ADA2107090F08398908144A89009F
:10D880008918C96906E0134810BDA108124A890029
:10D8900089180968C1400806800F042811D20028A1
:10D8A0000FD002280DD00D494B68E206D20E0120A0
:10D8B0009040002B08D0620992008B5803438B5094
:10D8C00004E00448401C10BD05490860002010BD5C
:10D8D00000ED00E00120000000E400E098200020BE
:10D8E00000E100E0FFB50746806A81B014460028D9
:10D8F0003DD0002538462030009033E00C20B96A36
:10D9000068430E18B088801CFE2802D90C2005B090
:10D91000F0BD22880299401C885420881622401CA1
:10D9200080B2208002990A542088401C80B2208056
:10D9300002994118308800F02BFB2188401880B2F2
:10D940002080B288002A0AD0B16800290FD0029B3B
:10D95000C018FDF7F1FB2088B188401820806D1CAD
:10D960000098EDB2007BA842C8D80020CFE707207E
:10D97000CDE7000070B504461248134D018A21829C
:10D98000818A61820078002818D06879002815D132
:10D9900000F0BCFB002811D028462030E0600220B7
:10D9A0000849207204202031C87006480021203028
:10D9B000FEF7CCF8002804D1052000E00320A87071
:10D9C000002070BD182400200C20002070B50446F3
:10D9D00011480426018B2182818B618200780F4DD2
:10D9E000002816D06879002813D100F08FFB00289A
:10D9F0000FD028462030E060022020720648002127
:10DA00002030C670FEF7A2F8002804D10620A870C6
:10DA100000E0AE70002070BD182400200C20002013
:10DA200010B50020FEF7A8FC002801D0FDF7E8FEA5
:10DA3000FEF7ECFB002801D0FDF7E2FE3CDF0028FA
:10DA400001D0FDF7DDFE10BD002803D00249C860FB
:10DA5000002070470E207047A42000201CB5034909
:10DA600001910091694660DF1CBD0000E81F0020A5
:10DA700070B50E460546144614211046FDF775FB99
:10DA80000120002120802161217326726572002D02
:10DA900000D0A072002070BD10B5FDF7A3FE10BD30
:10DAA000F8B5002903D08C070025002C01D00720F1
:10DAB000F8BD0E4E0E4FB16072807360396801245C
:10DAC000214003D00A49254680310C60094910DF06
:10DAD000002803D0002DEBD03C60F8BD3470FFF778
:10DAE0003BFA1620FFF7BCFEF8BD0000A420002082
:10DAF00000E100E099DA0100014800787047000079
:10DB0000A4200020FEB51F4C0025A7686068029085
:10DB10006846FEF7BDFE0190FEF7A6FF0646019897
:10DB2000002822D000230098616817E00E680A469A
:10DB3000864202D9301A086012E0801BF3180026D2
:10DB40001660D668D169B446002E07D0FE1836029A
:10DB5000360A566066469660D56115460029E5D1BD
:10DB600028466160FEF7D6FF06E02846FEF7D2FFA2
:10DB7000002801D1002E02D00298FEF789FD002076
:10DB8000E070FEBD6420002001200249000508600D
:10DB90007047000000E200E010B50E4B5968002904
:10DBA00006D002680C68A24204D8A21A0A60C161B9
:10DBB000586010BD0B4604E00B46C969121B0029D2
:10DBC00004D00C689442F7D3A41A0C600260C161BF
:10DBD000D86110BD642000207CB50D4606460024A7
:10DBE00069460C706846FDF77DFF01A800F008FA51
:10DBF00000280DD0057046606846084900794870D5
:10DC000068460078FDF78CFFFFF7BEFF20467CBD1D
:10DC1000684604240078FDF783FFF7E774200020AE
:10DC2000F8B51D4D6C68002C34D01C4800274068A6
:10DC3000A968401A0602360A2068B04218D8361A77
:10DC4000C7192246107CE46900280FD00020107408
:10DC5000EB68002B07D0916950699847002805D0E0
:10DC6000FDF7CEFD02E0516990698847002CE3D1B1
:10DC700029786878814206D1401CC0B268700228B9
:10DC800001D10020687004490006800D18310F5042
:10DC9000FFF77AFFF8BD0000642000200015014066
:10DCA000FF221D32002383508B8A8A68D25C8B8AC4
:10DCB0005B1C8B82052109024018C261704770B558
:10DCC0008EB005461C216846FDF74FFA6946087874
:10DCD0000C210843694608700024019403940494BD
:10DCE00005940694287808A988700220694608845B
:10DCF000601C0007000F1030079408771120487748
:10DD0000887FF9210840F721801C0840EF21084056
:10DD10000126304369468877142109A8FDF725FAC2
:10DD200008A8099007A80A9069468E851420CC851A
:10DD3000088668882B1D09AAA2DF0EB070BD1FB52A
:10DD400000226B461A70197281680191827506C8AB
:10DD5000684690471FBD000070B50178002907D0C4
:10DD6000012901D0022902D14068FDF749FD70BDAB
:10DD70000F4C0E4D20782818FDF720FE2078401C0F
:10DD8000C2B2A81822702038C07F0A2801D0142AF5
:10DD9000EDD306490748FEF7A1F9082803D000286B
:10DDA00001D0FDF72DFD0020207070BD0421002062
:10DDB000E81F0020902300207CB50178284D002921
:10DDC00034D001290CD002292DD16A461170C068C7
:10DDD000691C01900122C81DFFF75EFA68463CE00D
:10DDE000406801781F48FDF734FD01261D4C0028CE
:10DDF00003D069460E70019006E0A068E168814298
:10DE000005D0002069460870084669688847A06800
:10DE1000E168081AA188884206D811490122491CE4
:10DE2000C81DFFF739FA7CBDAE707CBD0D480C49AA
:10DE30001030FDF7F1FC002805D109490122084600
:10DE40000830FFF7C1FA074910318868C968814274
:10DE5000EBD10320694608706846696888477CBD35
:10DE60008420002094260020F0B50C46012185B0C6
:10DE700005464902FFF797FB032109026F180026A8
:10DE8000002826D0FF2125312846FFF787FB0028F0
:10DE90001FD0FF2025302E5081208000B860A07E4A
:10DEA000002801D101206860022168460170092024
:10DEB000C0012918086808600390E17D6846017276
:10DEC000E0680190E675267606CC6846083C9047E7
:10DED0002DE004212846FFF766FB002827D0FF210C
:10DEE00009312846FFF75AFB002820D02146284652
:10DEF000FFF73CFCE07D617E884218D1207E00283F
:10DF000007D0617EE268E0752069E060267666767B
:10DF10000AE0A07E002801D10120686081208000F5
:10DF2000B860E675617EE2682046FFF781FCFF2756
:10DF30001D3739462846FFF731FB00280FD0A08A4D
:10DF4000A17D884204D221462846FFF7A9FE06E0BB
:10DF5000EE51A17D002902D02046FFF7F0FEFF27F9
:10DF6000453739462846FFF719FB00280ED0EE51F9
:10DF7000A07E002801D001202860E07D002805D087
:10DF8000E675617EE2682046FFF752FC05B0F0BD01
:10DF90000870000A487002207047000038B5154923
:10DFA000154A488890420FD04A78144C521CD2B27D
:10DFB0004A70237B934208D3091D75DF002803D0E4
:10DFC000A169002900D0884738BD00254D70217C0B
:10DFD000002907D03B2176DF002803D0A169002962
:10DFE00000D0884761690029EED0684605708847EF
:10DFF00038BD00003C200020FFFF0000E02500208D
:10E0000010B509494B788C785A1CD2B2944200D191
:10E0100000220C78944201D1002010BD02704868A3
:10E0200018214B43C01810BD74200020FFB583B0E9
:10E0300016460C9D0D9C1F460222009501940398E4
:10E0400000F00CF8002807D13B461022314600951D
:10E050000194039800F002F807B0F0BDFFB583B05B
:10E06000074600200C9C8646268805463AE07868DC
:10E07000A90042181188684681805188C180002219
:10E08000694601A865DF002839D1684601780598FE
:10E09000814226D17046002801D0002200E00222F1
:10E0A0002088891842180D998A4227D8714600297C
:10E0B0000AD1401C80B22080069A0499115420880D
:10E0C000401C208001208646218806980A1869464F
:10E0D00001A865DF002812D1694620880978401818
:10E0E00020806D1C3888A842C1DC704600280AD008
:10E0F0002088801B401E80B2FF2802D90C2007B068
:10E10000F0BD069988550020F9E700000448017920
:10E11000002902D1007B002800D0012070470000B8
:10E120002C200020010000070B0000000900000067
:10E130000A000000080000000000000000E0D70115
:10E14000AC230020CC230020F82300201100000085
:10E150001200000013000000140000001100030072
:10E1600021C201001200030021C2010013000300BC
:10E1700021C201001400030021C20100C0250020BB
:10E180009ECADC240EE5A9E093F3A3B50000406E1F
:10E190007426002003000000FFFFFFFFFFFFFFFFCA
:10E1A000FFFFFFFFFFFFFFFF000000000000000077
:10E1B00000E0D70103000000D8E10100E81F0020C3
:10E1C000D4000000B6B40100ACE20100BC20002085
:10E1D000640E0000C6B401000000FFFF0100020051
:10E1E000000000000000000000000000000000002F
:10E1F000000000000000000000000000000000001F
:10E20000000000000000000000000000000000000E
:10E210000000000000000000000000008025002039
:10E2200000000000A0250020000000000000000009
:10E2300000000000000000000000000000000000DE
:10E2400000000000000000000000000000000000CE
:10E2500000000000000000000000000000000000BE
:10E2600000000000000000000000000000000000AE
:10E27000000000000000000000000000002000403E
:10E28000000000000000000000000000000000008E
:10E29000000000000000000000000000000000007E
:0CE2A00000000000000000000024F4005A
:040000050001B0C185
:00000001FF
