Component: ARM Compiler 5.05 update 2 (build 169) Tool: armlink [4d0f33]

==============================================================================

Section Cross References

    main.o(i.assert_nrf_callback) refers to app_error.o(i.app_error_handler) for app_error_handler
    main.o(i.ble_evt_dispatch) refers to ble_conn_params.o(i.ble_conn_params_on_ble_evt) for ble_conn_params_on_ble_evt
    main.o(i.ble_evt_dispatch) refers to ble_nus.o(i.ble_nus_on_ble_evt) for ble_nus_on_ble_evt
    main.o(i.ble_evt_dispatch) refers to main.o(i.on_ble_evt) for on_ble_evt
    main.o(i.ble_evt_dispatch) refers to ble_advertising.o(i.ble_advertising_on_ble_evt) for ble_advertising_on_ble_evt
    main.o(i.ble_evt_dispatch) refers to bsp_btn_ble.o(i.bsp_btn_ble_on_ble_evt) for bsp_btn_ble_on_ble_evt
    main.o(i.ble_evt_dispatch) refers to main.o(.bss) for .bss
    main.o(i.bsp_event_handler) refers to main.o(i.sleep_mode_enter) for sleep_mode_enter
    main.o(i.bsp_event_handler) refers to app_error.o(i.app_error_handler_bare) for app_error_handler_bare
    main.o(i.bsp_event_handler) refers to ble_advertising.o(i.ble_advertising_restart_without_whitelist) for ble_advertising_restart_without_whitelist
    main.o(i.bsp_event_handler) refers to main.o(.data) for .data
    main.o(i.conn_params_error_handler) refers to app_error.o(i.app_error_handler_bare) for app_error_handler_bare
    main.o(i.main) refers to app_timer.o(i.app_timer_init) for app_timer_init
    main.o(i.main) refers to app_error.o(i.app_error_handler_bare) for app_error_handler_bare
    main.o(i.main) refers to memcpya.o(.text) for __aeabi_memcpy4
    main.o(i.main) refers to app_uart_fifo.o(i.app_uart_init) for app_uart_init
    main.o(i.main) refers to bsp.o(i.bsp_init) for bsp_init
    main.o(i.main) refers to bsp_btn_ble.o(i.bsp_btn_ble_init) for bsp_btn_ble_init
==============================================================================

Removing Unused input sections from the image.

    Removing main.o(.rev16_text), (4 bytes).
    Removing main.o(.revsh_text), (4 bytes).
    Removing main.o(i.assert_nrf_callback), (20 bytes).
    Removing bsp.o(.rev16_text), (4 bytes).
    Removing bsp.o(.revsh_text), (4 bytes).
    Removing bsp.o(i.bsp_buttons_disable), (8 bytes).
    Removing bsp.o(i.bsp_buttons_enable), (8 bytes).
    Removing bsp.o(i.bsp_buttons_state_get), (60 bytes).
    Removing bsp.o(i.bsp_indication_text_set), (8 bytes).
    Removing bsp.o(i.bsp_wakeup_nfc_set), (4 bytes).
    Removing bsp_btn_ble.o(.rev16_text), (4 bytes).
    Removing bsp_btn_ble.o(.revsh_text), (4 bytes).
    Removing ble_advdata.o(.rev16_text), (4 bytes).
    Removing ble_advdata.o(.revsh_text), (4 bytes).
    Removing ble_advertising.o(.rev16_text), (4 bytes).
    Removing ble_advertising.o(.revsh_text), (4 bytes).
    Removing ble_advertising.o(i.ble_advertising_on_sys_evt), (48 bytes).
    Removing ble_advertising.o(i.ble_advertising_peer_addr_reply), (40 bytes).
==============================================================================

Image Symbol Table

    Local Symbols

    Symbol Name                              Value     Ov Type        Size  Object(Section)

    ../clib/microlib/division.c              0x00000000   Number         0  uldiv.o ABSOLUTE
    ../clib/microlib/division.c              0x00000000   Number         0  uidiv.o ABSOLUTE
    ../clib/microlib/init/entry.s            0x00000000   Number         0  entry2.o ABSOLUTE
    ../clib/microlib/init/entry.s            0x00000000   Number         0  entry7b.o ABSOLUTE
    ../clib/microlib/init/entry.s            0x00000000   Number         0  entry8b.o ABSOLUTE
    ../clib/microlib/init/entry.s            0x00000000   Number         0  entry10a.o ABSOLUTE
    ../clib/microlib/init/entry.s            0x00000000   Number         0  entry9b.o ABSOLUTE
    ../clib/microlib/init/entry.s            0x00000000   Number         0  entry.o ABSOLUTE
    ../clib/microlib/init/entry.s            0x00000000   Number         0  entry8a.o ABSOLUTE
    ../clib/microlib/init/entry.s            0x00000000   Number         0  entry5.o ABSOLUTE
    ../clib/microlib/init/entry.s            0x00000000   Number         0  entry7a.o ABSOLUTE
    ../clib/microlib/init/entry.s            0x00000000   Number         0  entry9a.o ABSOLUTE
    ../clib/microlib/init/entry.s            0x00000000   Number         0  entry11b.o ABSOLUTE
    ../clib/microlib/init/entry.s            0x00000000   Number         0  entry11a.o ABSOLUTE
    ../clib/microlib/init/entry.s            0x00000000   Number         0  entry10b.o ABSOLUTE
    ../clib/microlib/longlong.c              0x00000000   Number         0  llshl.o ABSOLUTE
    ../clib/microlib/longlong.c              0x00000000   Number         0  llsshr.o ABSOLUTE
    ../clib/microlib/longlong.c              0x00000000   Number         0  llushr.o ABSOLUTE
    ../clib/microlib/printf/printf.c         0x00000000   Number         0  printf8.o ABSOLUTE
    ../clib/microlib/printf/printf.c         0x00000000   Number         0  printfa.o ABSOLUTE
    ../clib/microlib/printf/printf.c         0x00000000   Number         0  printf6.o ABSOLUTE
    ../clib/microlib/printf/printf.c         0x00000000   Number         0  printf3.o ABSOLUTE
    ../clib/microlib/printf/printf.c         0x00000000   Number         0  printf4.o ABSOLUTE
    ../clib/microlib/printf/printf.c         0x00000000   Number         0  printf5.o ABSOLUTE
    ../clib/microlib/printf/printf.c         0x00000000   Number         0  printf7.o ABSOLUTE
    ../clib/microlib/printf/printf.c         0x00000000   Number         0  printf2.o ABSOLUTE
    ../clib/microlib/printf/printf.c         0x00000000   Number         0  printfb.o ABSOLUTE
    ../clib/microlib/printf/printf.c         0x00000000   Number         0  printf0.o ABSOLUTE
    ../clib/microlib/printf/printf.c         0x00000000   Number         0  printf1.o ABSOLUTE
    ../clib/microlib/string/memcpy.c         0x00000000   Number         0  memcpya.o ABSOLUTE
    ../clib/microlib/string/memcpy.c         0x00000000   Number         0  memcpyb.o ABSOLUTE
    ../clib/microlib/string/memset.c         0x00000000   Number         0  memseta.o ABSOLUTE
    ../clib/microlib/string/strlen.c         0x00000000   Number         0  strlen.o ABSOLUTE
    ../clib/microlib/stubs.s                 0x00000000   Number         0  iusefp.o ABSOLUTE
    ../fplib/microlib/fpadd.c                0x00000000   Number         0  dadd.o ABSOLUTE
    ../fplib/microlib/fpdiv.c                0x00000000   Number         0  ddiv.o ABSOLUTE
    ../fplib/microlib/fpepilogue.c           0x00000000   Number         0  depilogue.o ABSOLUTE
    ../fplib/microlib/fpfix.c                0x00000000   Number         0  dfixul.o ABSOLUTE
    ../fplib/microlib/fpmul.c                0x00000000   Number         0  dmul.o ABSOLUTE
    ..\..\..\..\..\..\components\ble\ble_advertising\ble_advertising.c 0x00000000   Number         0  ble_advertising.o ABSOLUTE
    ..\..\..\..\..\..\components\ble\ble_services\ble_nus\ble_nus.c 0x00000000   Number         0  ble_nus.o ABSOLUTE
    ..\..\..\..\..\..\components\ble\common\ble_advdata.c 0x00000000   Number         0  ble_advdata.o ABSOLUTE
    ..\..\..\..\..\..\components\ble\common\ble_conn_params.c 0x00000000   Number         0  ble_conn_params.o ABSOLUTE
    ..\..\..\..\..\..\components\ble\common\ble_srv_common.c 0x00000000   Number         0  ble_srv_common.o ABSOLUTE
    ..\..\..\..\..\..\components\drivers_nrf\clock\nrf_drv_clock.c 0x00000000   Number         0  nrf_drv_clock.o ABSOLUTE
    ..\..\..\..\..\..\components\drivers_nrf\common\nrf_drv_common.c 0x00000000   Number         0  nrf_drv_common.o ABSOLUTE
    ..\..\..\..\..\..\components\drivers_nrf\gpiote\nrf_drv_gpiote.c 0x00000000   Number         0  nrf_drv_gpiote.o ABSOLUTE
    ..\..\..\..\..\..\components\drivers_nrf\uart\nrf_drv_uart.c 0x00000000   Number         0  nrf_drv_uart.o ABSOLUTE
    ..\..\..\..\..\..\components\libraries\button\app_button.c 0x00000000   Number         0  app_button.o ABSOLUTE
    ..\..\..\..\..\..\components\libraries\fifo\app_fifo.c 0x00000000   Number         0  app_fifo.o ABSOLUTE
    ..\..\..\..\..\..\components\libraries\fstorage\fstorage.c 0x00000000   Number         0  fstorage.o ABSOLUTE
    ..\..\..\..\..\..\components\libraries\hardfault\hardfault_implementation.c 0x00000000   Number         0  hardfault_implementation.o ABSOLUTE
    ..\..\..\..\..\..\components\libraries\timer\app_timer.c 0x00000000   Number         0  app_timer.o ABSOLUTE
    ..\..\..\..\..\..\components\libraries\uart\app_uart_fifo.c 0x00000000   Number         0  app_uart_fifo.o ABSOLUTE
    ..\..\..\..\..\..\components\libraries\uart\retarget.c 0x00000000   Number         0  retarget.o ABSOLUTE
    ..\..\..\..\..\..\components\libraries\util\app_error.c 0x00000000   Number         0  app_error.o ABSOLUTE
    ..\..\..\..\..\..\components\libraries\util\app_error_weak.c 0x00000000   Number         0  app_error_weak.o ABSOLUTE
    ..\..\..\..\..\..\components\libraries\util\app_util_platform.c 0x00000000   Number         0  app_util_platform.o ABSOLUTE
    ..\..\..\..\..\..\components\libraries\util\nrf_assert.c 0x00000000   Number         0  nrf_assert.o ABSOLUTE
    ..\..\..\..\..\..\components\softdevice\common\softdevice_handler\softdevice_handler.c 0x00000000   Number         0  softdevice_handler.o ABSOLUTE
    ..\..\..\..\..\bsp\bsp.c                 0x00000000   Number         0  bsp.o ABSOLUTE
    ..\..\..\..\..\bsp\bsp_btn_ble.c         0x00000000   Number         0  bsp_btn_ble.o ABSOLUTE
    ..\..\..\main.c                          0x00000000   Number         0  main.o ABSOLUTE
    ..\\..\\..\\..\\..\\..\\components\\ble\\ble_advertising\\ble_advertising.c 0x00000000   Number         0  ble_advertising.o ABSOLUTE
    ..\\..\\..\\..\\..\\..\\components\\ble\\ble_services\\ble_nus\\ble_nus.c 0x00000000   Number         0  ble_nus.o ABSOLUTE
    ..\\..\\..\\..\\..\\..\\components\\ble\\common\\ble_advdata.c 0x00000000   Number         0  ble_advdata.o ABSOLUTE
    ..\\..\\..\\..\\..\\..\\components\\ble\\common\\ble_conn_params.c 0x00000000   Number         0  ble_conn_params.o ABSOLUTE
    ..\\..\\..\\..\\..\\..\\components\\ble\\common\\ble_srv_common.c 0x00000000   Number         0  ble_srv_common.o ABSOLUTE
    ..\\..\\..\\..\\..\\..\\components\\drivers_nrf\\clock\\nrf_drv_clock.c 0x00000000   Number         0  nrf_drv_clock.o ABSOLUTE
    ..\\..\\..\\..\\..\\..\\components\\drivers_nrf\\common\\nrf_drv_common.c 0x00000000   Number         0  nrf_drv_common.o ABSOLUTE
    ..\\..\\..\\..\\..\\..\\components\\drivers_nrf\\gpiote\\nrf_drv_gpiote.c 0x00000000   Number         0  nrf_drv_gpiote.o ABSOLUTE
    ..\\..\\..\\..\\..\\..\\components\\drivers_nrf\\uart\\nrf_drv_uart.c 0x00000000   Number         0  nrf_drv_uart.o ABSOLUTE
    ..\\..\\..\\..\\..\\..\\components\\libraries\\button\\app_button.c 0x00000000   Number         0  app_button.o ABSOLUTE
    ..\\..\\..\\..\\..\\..\\components\\libraries\\fifo\\app_fifo.c 0x00000000   Number         0  app_fifo.o ABSOLUTE
    ..\\..\\..\\..\\..\\..\\components\\libraries\\fstorage\\fstorage.c 0x00000000   Number         0  fstorage.o ABSOLUTE
    ..\\..\\..\\..\\..\\..\\components\\libraries\\timer\\app_timer.c 0x00000000   Number         0  app_timer.o ABSOLUTE
    ..\\..\\..\\..\\..\\..\\components\\libraries\\uart\\app_uart_fifo.c 0x00000000   Number         0  app_uart_fifo.o ABSOLUTE
    ..\\..\\..\\..\\..\\..\\components\\libraries\\uart\\retarget.c 0x00000000   Number         0  retarget.o ABSOLUTE
    ..\\..\\..\\..\\..\\..\\components\\libraries\\util\\app_error.c 0x00000000   Number         0  app_error.o ABSOLUTE
    ..\\..\\..\\..\\..\\..\\components\\libraries\\util\\app_error_weak.c 0x00000000   Number         0  app_error_weak.o ABSOLUTE
    ..\\..\\..\\..\\..\\..\\components\\libraries\\util\\app_util_platform.c 0x00000000   Number         0  app_util_platform.o ABSOLUTE
    ..\\..\\..\\..\\..\\..\\components\\libraries\\util\\nrf_assert.c 0x00000000   Number         0  nrf_assert.o ABSOLUTE
    ..\\..\\..\\..\\..\\..\\components\\softdevice\\common\\softdevice_handler\\softdevice_handler.c 0x00000000   Number         0  softdevice_handler.o ABSOLUTE
    ..\\..\\..\\..\\..\\bsp\\bsp.c           0x00000000   Number         0  bsp.o ABSOLUTE
    ..\\..\\..\\..\\..\\bsp\\bsp_btn_ble.c   0x00000000   Number         0  bsp_btn_ble.o ABSOLUTE
    ..\\..\\..\\main.c                       0x00000000   Number         0  main.o ABSOLUTE
    RTE\Device\nRF51422_xxAC\arm_startup_nrf51.s 0x00000000   Number         0  arm_startup_nrf51.o ABSOLUTE
    RTE\Device\nRF51422_xxAC\system_nrf51.c  0x00000000   Number         0  system_nrf51.o ABSOLUTE
    RTE\\Device\\nRF51422_xxAC\\system_nrf51.c 0x00000000   Number         0  system_nrf51.o ABSOLUTE
    cdrcmple.s                               0x00000000   Number         0  cdrcmple.o ABSOLUTE
    dc.s                                     0x00000000   Number         0  dc.o ABSOLUTE
    handlers.s                               0x00000000   Number         0  handlers.o ABSOLUTE
    init.s                                   0x00000000   Number         0  init.o ABSOLUTE
    RESET                                    0x0001b000   Section      192  arm_startup_nrf51.o(RESET)
    .ARM.Collect$$$$00000000                 0x0001b0c0   Section        0  entry.o(.ARM.Collect$$$$00000000)
    .ARM.Collect$$$$00000001                 0x0001b0c0   Section        4  entry2.o(.ARM.Collect$$$$00000001)
    .ARM.Collect$$$$00000004                 0x0001b0c4   Section        4  entry5.o(.ARM.Collect$$$$00000004)
    .ARM.Collect$$$$00000008                 0x0001b0c8   Section        0  entry7b.o(.ARM.Collect$$$$00000008)
    .ARM.Collect$$$$0000000A                 0x0001b0c8   Section        0  entry8b.o(.ARM.Collect$$$$0000000A)
    .ARM.Collect$$$$0000000B                 0x0001b0c8   Section        8  entry9a.o(.ARM.Collect$$$$0000000B)
    .ARM.Collect$$$$0000000D                 0x0001b0d0   Section        0  entry10a.o(.ARM.Collect$$$$0000000D)
    .ARM.Collect$$$$0000000F                 0x0001b0d0   Section        0  entry11a.o(.ARM.Collect$$$$0000000F)
    .ARM.Collect$$$$00002712                 0x0001b0d0   Section        4  entry2.o(.ARM.Collect$$$$00002712)
    __lit__00000000                          0x0001b0d0   Data           4  entry2.o(.ARM.Collect$$$$00002712)
    .text                                    0x0001b0d4   Section       56  arm_startup_nrf51.o(.text)
    .text                                    0x0001b10c   Section        0  uidiv.o(.text)
    .text                                    0x0001b138   Section        0  memcpya.o(.text)
    .text                                    0x0001b15c   Section        0  memseta.o(.text)
    .text                                    0x0001b180   Section       36  init.o(.text)
    i.GPIOTE_IRQHandler                      0x0001b1a4   Section        0  nrf_drv_gpiote.o(i.GPIOTE_IRQHandler)
    i.NVIC_SetPriority                       0x0001b2f4   Section        0  app_timer.o(i.NVIC_SetPriority)
    NVIC_SetPriority                         0x0001b2f5   Thumb Code    60  app_timer.o(i.NVIC_SetPriority)
    i.POWER_CLOCK_IRQHandler                 0x0001b338   Section        0  nrf_drv_clock.o(i.POWER_CLOCK_IRQHandler)
    i.RTC1_IRQHandler                        0x0001b38c   Section        0  app_timer.o(i.RTC1_IRQHandler)
    i.SWI0_IRQHandler                        0x0001b3ac   Section        0  app_timer.o(i.SWI0_IRQHandler)
    i.SWI2_IRQHandler                        0x0001b3b4   Section        0  softdevice_handler.o(i.SWI2_IRQHandler)
    i.SystemInit                             0x0001b3d4   Section        0  system_nrf51.o(i.SystemInit)
    i.UART0_IRQHandler                       0x0001b474   Section        0  nrf_drv_uart.o(i.UART0_IRQHandler)
    i.__0printf$bare                         0x0001b488   Section        0  printfb.o(i.__0printf$bare)
    i.__ARM_common_switch8                   0x0001b49c   Section        0  bsp.o(i.__ARM_common_switch8)
    i.__scatterload_copy                     0x0001b4b6   Section       14  handlers.o(i.__scatterload_copy)
    i.__scatterload_null                     0x0001b4c4   Section        2  handlers.o(i.__scatterload_null)
    i.__scatterload_zeroinit                 0x0001b4c6   Section       14  handlers.o(i.__scatterload_zeroinit)
    i.__sd_nvic_app_accessible_irq           0x0001b4d4   Section        0  softdevice_handler.o(i.__sd_nvic_app_accessible_irq)
    __sd_nvic_app_accessible_irq             0x0001b4d5   Thumb Code    22  softdevice_handler.o(i.__sd_nvic_app_accessible_irq)
    i._printf_core                           0x0001b4f0   Section        0  printfb.o(i._printf_core)
    _printf_core                             0x0001b4f1   Thumb Code    30  printfb.o(i._printf_core)
    i.adv_data_encode                        0x0001b50e   Section        0  ble_advdata.o(i.adv_data_encode)
    i.adv_mode_next_avail_get                0x0001b69c   Section        0  ble_advertising.o(i.adv_mode_next_avail_get)
    adv_mode_next_avail_get                  0x0001b69d   Thumb Code    94  ble_advertising.o(i.adv_mode_next_avail_get)
    i.advertising_buttons_configure          0x0001b704   Section        0  bsp_btn_ble.o(i.advertising_buttons_configure)
    advertising_buttons_configure            0x0001b705   Thumb Code    60  bsp_btn_ble.o(i.advertising_buttons_configure)
    i.alert_timer_handler                    0x0001b740   Section        0  bsp.o(i.alert_timer_handler)
    alert_timer_handler                      0x0001b741   Thumb Code    10  bsp.o(i.alert_timer_handler)
    i.app_button_enable                      0x0001b74c   Section        0  app_button.o(i.app_button_enable)
    i.app_button_init                        0x0001b770   Section        0  app_button.o(i.app_button_init)
    i.app_error_fault_handler                0x0001b7e4   Section        0  app_error_weak.o(i.app_error_fault_handler)
    i.app_error_handler_bare                 0x0001b800   Section        0  app_error.o(i.app_error_handler_bare)
    i.app_fifo_get                           0x0001b818   Section        0  app_fifo.o(i.app_fifo_get)
    i.app_fifo_init                          0x0001b82e   Section        0  app_fifo.o(i.app_fifo_init)
    i.app_fifo_put                           0x0001b852   Section        0  app_fifo.o(i.app_fifo_put)
    i.app_timer_create                       0x0001b86c   Section        0  app_timer.o(i.app_timer_create)
    i.app_timer_init                         0x0001b898   Section        0  app_timer.o(i.app_timer_init)
    i.app_timer_start                        0x0001b90c   Section        0  app_timer.o(i.app_timer_start)
    i.app_timer_stop                         0x0001b994   Section        0  app_timer.o(i.app_timer_stop)
    i.app_uart_get                           0x0001b9bc   Section        0  app_uart_fifo.o(i.app_uart_get)
    i.app_uart_init                          0x0001b9f4   Section        0  app_uart_fifo.o(i.app_uart_init)
    i.app_uart_put                           0x0001baa4   Section        0  app_uart_fifo.o(i.app_uart_put)
    i.app_util_critical_region_enter         0x0001bae4   Section        0  app_util_platform.o(i.app_util_critical_region_enter)
    i.app_util_critical_region_exit          0x0001bb20   Section        0  app_util_platform.o(i.app_util_critical_region_exit)
    i.ble_advdata_set                        0x0001bb4c   Section        0  ble_advdata.o(i.ble_advdata_set)
    i.ble_advertising_init                   0x0001bbb4   Section        0  ble_advertising.o(i.ble_advertising_init)
    i.ble_advertising_on_ble_evt             0x0001bd10   Section        0  ble_advertising.o(i.ble_advertising_on_ble_evt)
    i.ble_advertising_restart_without_whitelist 0x0001bd68   Section        0  ble_advertising.o(i.ble_advertising_restart_without_whitelist)
    i.ble_advertising_start                  0x0001bda4   Section        0  ble_advertising.o(i.ble_advertising_start)
    i.ble_conn_params_init                   0x0001beac   Section        0  ble_conn_params.o(i.ble_conn_params_init)
    i.ble_conn_params_on_ble_evt             0x0001bf00   Section        0  ble_conn_params.o(i.ble_conn_params_on_ble_evt)
    i.ble_device_addr_encode                 0x0001bf90   Section        0  ble_advdata.o(i.ble_device_addr_encode)
    ble_device_addr_encode                   0x0001bf91   Thumb Code    94  ble_advdata.o(i.ble_device_addr_encode)
    i.ble_evt_dispatch                       0x0001bff0   Section        0  main.o(i.ble_evt_dispatch)
    ble_evt_dispatch                         0x0001bff1   Thumb Code    36  main.o(i.ble_evt_dispatch)
    i.ble_nus_init                           0x0001c018   Section        0  ble_nus.o(i.ble_nus_init)
    i.ble_nus_on_ble_evt                     0x0001c080   Section        0  ble_nus.o(i.ble_nus_on_ble_evt)
    i.ble_nus_string_send                    0x0001c0dc   Section        0  ble_nus.o(i.ble_nus_string_send)
    i.ble_srv_is_notification_enabled        0x0001c130   Section        0  ble_srv_common.o(i.ble_srv_is_notification_enabled)
    i.bsp_btn_ble_init                       0x0001c140   Section        0  bsp_btn_ble.o(i.bsp_btn_ble_init)
    i.bsp_btn_ble_on_ble_evt                 0x0001c194   Section        0  bsp_btn_ble.o(i.bsp_btn_ble_on_ble_evt)
    i.bsp_btn_ble_sleep_mode_prepare         0x0001c20c   Section        0  bsp_btn_ble.o(i.bsp_btn_ble_sleep_mode_prepare)
    i.bsp_button_event_handler               0x0001c220   Section        0  bsp.o(i.bsp_button_event_handler)
    bsp_button_event_handler                 0x0001c221   Thumb Code   148  bsp.o(i.bsp_button_event_handler)
    i.bsp_button_is_pressed                  0x0001c2c0   Section        0  bsp.o(i.bsp_button_is_pressed)
    i.bsp_event_handler                      0x0001c2ec   Section        0  main.o(i.bsp_event_handler)
    i.bsp_event_to_button_action_assign      0x0001c330   Section        0  bsp.o(i.bsp_event_to_button_action_assign)
    i.bsp_indication_set                     0x0001c378   Section        0  bsp.o(i.bsp_indication_set)
    i.bsp_init                               0x0001c394   Section        0  bsp.o(i.bsp_init)
    i.bsp_led_indication                     0x0001c43c   Section        0  bsp.o(i.bsp_led_indication)
    bsp_led_indication                       0x0001c43d   Thumb Code   360  bsp.o(i.bsp_led_indication)
    i.bsp_wakeup_buttons_set                 0x0001c5ac   Section        0  bsp.o(i.bsp_wakeup_buttons_set)
    i.button_timer_handler                   0x0001c5e8   Section        0  bsp.o(i.button_timer_handler)
    button_timer_handler                     0x0001c5e9   Thumb Code    12  bsp.o(i.button_timer_handler)
    i.channel_free                           0x0001c5f4   Section        0  nrf_drv_gpiote.o(i.channel_free)
    channel_free                             0x0001c5f5   Thumb Code    22  nrf_drv_gpiote.o(i.channel_free)
    i.channel_port_alloc                     0x0001c610   Section        0  nrf_drv_gpiote.o(i.channel_port_alloc)
    channel_port_alloc                       0x0001c611   Thumb Code    66  nrf_drv_gpiote.o(i.channel_port_alloc)
    i.channel_port_get                       0x0001c658   Section        0  nrf_drv_gpiote.o(i.channel_port_get)
    channel_port_get                         0x0001c659   Thumb Code    10  nrf_drv_gpiote.o(i.channel_port_get)
    i.clock_clk_started_notify               0x0001c668   Section        0  nrf_drv_clock.o(i.clock_clk_started_notify)
    clock_clk_started_notify                 0x0001c669   Thumb Code    34  nrf_drv_clock.o(i.clock_clk_started_notify)
    i.compare_reg_update                     0x0001c690   Section        0  app_timer.o(i.compare_reg_update)
    compare_reg_update                       0x0001c691   Thumb Code   142  app_timer.o(i.compare_reg_update)
    i.conn_int_encode                        0x0001c738   Section        0  ble_advdata.o(i.conn_int_encode)
    conn_int_encode                          0x0001c739   Thumb Code   130  ble_advdata.o(i.conn_int_encode)
    i.conn_params_error_handler              0x0001c7c0   Section        0  main.o(i.conn_params_error_handler)
    conn_params_error_handler                0x0001c7c1   Thumb Code     8  main.o(i.conn_params_error_handler)
    i.conn_params_negotiation                0x0001c7c8   Section        0  ble_conn_params.o(i.conn_params_negotiation)
    conn_params_negotiation                  0x0001c7c9   Thumb Code    92  ble_conn_params.o(i.conn_params_negotiation)
    i.detection_delay_timeout_handler        0x0001c830   Section        0  app_button.o(i.detection_delay_timeout_handler)
    detection_delay_timeout_handler          0x0001c831   Thumb Code    90  app_button.o(i.detection_delay_timeout_handler)
    i.elapsed_ticks_acquire                  0x0001c890   Section        0  app_timer.o(i.elapsed_ticks_acquire)
    elapsed_ticks_acquire                    0x0001c891   Thumb Code    58  app_timer.o(i.elapsed_ticks_acquire)
    i.fifo_get                               0x0001c8d0   Section        0  app_fifo.o(i.fifo_get)
    fifo_get                                 0x0001c8d1   Thumb Code    20  app_fifo.o(i.fifo_get)
    i.fifo_put                               0x0001c8e4   Section        0  app_fifo.o(i.fifo_put)
    fifo_put                                 0x0001c8e5   Thumb Code    18  app_fifo.o(i.fifo_put)
    i.fputc                                  0x0001c8f6   Section        0  retarget.o(i.fputc)
    i.fs_queued_op_count_get                 0x0001c904   Section        0  fstorage.o(i.fs_queued_op_count_get)
    i.gpiote_event_handler                   0x0001c91c   Section        0  app_button.o(i.gpiote_event_handler)
    gpiote_event_handler                     0x0001c91d   Thumb Code    72  app_button.o(i.gpiote_event_handler)
    i.intern_softdevice_events_execute       0x0001c96c   Section        0  softdevice_handler.o(i.intern_softdevice_events_execute)
    i.is_conn_params_ok                      0x0001c9ec   Section        0  ble_conn_params.o(i.is_conn_params_ok)
    is_conn_params_ok                        0x0001c9ed   Thumb Code    24  ble_conn_params.o(i.is_conn_params_ok)
    i.is_manual_peripheral_setup_needed      0x0001ca08   Section        0  system_nrf51.o(i.is_manual_peripheral_setup_needed)
    is_manual_peripheral_setup_needed        0x0001ca09   Thumb Code    66  system_nrf51.o(i.is_manual_peripheral_setup_needed)
    i.leds_timer_handler                     0x0001ca50   Section        0  bsp.o(i.leds_timer_handler)
    leds_timer_handler                       0x0001ca51   Thumb Code    18  bsp.o(i.leds_timer_handler)
    i.list_deletions_handler                 0x0001ca68   Section        0  app_timer.o(i.list_deletions_handler)
    list_deletions_handler                   0x0001ca69   Thumb Code   162  app_timer.o(i.list_deletions_handler)
    i.list_insertions_handler                0x0001cb14   Section        0  app_timer.o(i.list_insertions_handler)
    list_insertions_handler                  0x0001cb15   Thumb Code   178  app_timer.o(i.list_insertions_handler)
    i.main                                   0x0001cbd0   Section        0  main.o(i.main)
    i.manuf_specific_data_encode             0x0001cdd4   Section        0  ble_advdata.o(i.manuf_specific_data_encode)
    manuf_specific_data_encode               0x0001cdd5   Thumb Code   104  ble_advdata.o(i.manuf_specific_data_encode)
    i.name_encode                            0x0001ce3c   Section        0  ble_advdata.o(i.name_encode)
    name_encode                              0x0001ce3d   Thumb Code   158  ble_advdata.o(i.name_encode)
    i.nrf_clock_event_check                  0x0001ceda   Section        0  nrf_drv_clock.o(i.nrf_clock_event_check)
    nrf_clock_event_check                    0x0001cedb   Thumb Code    16  nrf_drv_clock.o(i.nrf_clock_event_check)
    i.nrf_delay_us                           0x0001ceec   Section        0  app_timer.o(i.nrf_delay_us)
    nrf_delay_us                             0x0001ceed   Thumb Code    38  app_timer.o(i.nrf_delay_us)
    i.nrf_drv_clock_init                     0x0001cf1c   Section        0  nrf_drv_clock.o(i.nrf_drv_clock_init)
    i.nrf_drv_clock_on_sd_enable             0x0001cf58   Section        0  nrf_drv_clock.o(i.nrf_drv_clock_on_sd_enable)
    i.nrf_drv_clock_on_soc_event             0x0001cf8c   Section        0  nrf_drv_clock.o(i.nrf_drv_clock_on_soc_event)
    i.nrf_drv_common_irq_enable              0x0001cf98   Section        0  nrf_drv_common.o(i.nrf_drv_common_irq_enable)
    i.nrf_drv_gpiote_in_event_enable         0x0001cff8   Section        0  nrf_drv_gpiote.o(i.nrf_drv_gpiote_in_event_enable)
    i.nrf_drv_gpiote_in_init                 0x0001d090   Section        0  nrf_drv_gpiote.o(i.nrf_drv_gpiote_in_init)
    i.nrf_drv_gpiote_in_is_set               0x0001d134   Section        0  nrf_drv_gpiote.o(i.nrf_drv_gpiote_in_is_set)
    i.nrf_drv_gpiote_init                    0x0001d148   Section        0  nrf_drv_gpiote.o(i.nrf_drv_gpiote_init)
    i.nrf_drv_gpiote_is_init                 0x0001d1a4   Section        0  nrf_drv_gpiote.o(i.nrf_drv_gpiote_is_init)
    i.nrf_drv_uart_init                      0x0001d1b4   Section        0  nrf_drv_uart.o(i.nrf_drv_uart_init)
    i.nrf_drv_uart_rx                        0x0001d298   Section        0  nrf_drv_uart.o(i.nrf_drv_uart_rx)
    i.nrf_drv_uart_rx_enable                 0x0001d2f4   Section        0  nrf_drv_uart.o(i.nrf_drv_uart_rx_enable)
    i.nrf_drv_uart_rx_for_uart               0x0001d320   Section        0  nrf_drv_uart.o(i.nrf_drv_uart_rx_for_uart)
    nrf_drv_uart_rx_for_uart                 0x0001d321   Thumb Code   162  nrf_drv_uart.o(i.nrf_drv_uart_rx_for_uart)
    i.nrf_drv_uart_tx                        0x0001d3c8   Section        0  nrf_drv_uart.o(i.nrf_drv_uart_tx)
    i.nrf_drv_uart_tx_for_uart               0x0001d3fc   Section        0  nrf_drv_uart.o(i.nrf_drv_uart_tx_for_uart)
    nrf_drv_uart_tx_for_uart                 0x0001d3fd   Thumb Code   134  nrf_drv_uart.o(i.nrf_drv_uart_tx_for_uart)
    i.nrf_drv_uart_tx_in_progress            0x0001d488   Section        0  nrf_drv_uart.o(i.nrf_drv_uart_tx_in_progress)
    i.nrf_gpio_cfg                           0x0001d4a0   Section        0  nrf_drv_gpiote.o(i.nrf_gpio_cfg)
    nrf_gpio_cfg                             0x0001d4a1   Thumb Code    32  nrf_drv_gpiote.o(i.nrf_gpio_cfg)
    i.nrf_gpio_cfg                           0x0001d4c4   Section        0  nrf_drv_uart.o(i.nrf_gpio_cfg)
    nrf_gpio_cfg                             0x0001d4c5   Thumb Code    32  nrf_drv_uart.o(i.nrf_gpio_cfg)
    i.nrf_gpio_cfg_input                     0x0001d4e8   Section        0  nrf_drv_uart.o(i.nrf_gpio_cfg_input)
    nrf_gpio_cfg_input                       0x0001d4e9   Thumb Code    18  nrf_drv_uart.o(i.nrf_gpio_cfg_input)
    i.nrf_gpio_cfg_output                    0x0001d4fa   Section        0  nrf_drv_uart.o(i.nrf_gpio_cfg_output)
    nrf_gpio_cfg_output                      0x0001d4fb   Thumb Code    20  nrf_drv_uart.o(i.nrf_gpio_cfg_output)
    i.nrf_gpio_cfg_sense_set                 0x0001d510   Section        0  nrf_drv_gpiote.o(i.nrf_gpio_cfg_sense_set)
    nrf_gpio_cfg_sense_set                   0x0001d511   Thumb Code    26  nrf_drv_gpiote.o(i.nrf_gpio_cfg_sense_set)
    i.nrf_gpio_pin_clear                     0x0001d530   Section        0  bsp.o(i.nrf_gpio_pin_clear)
    nrf_gpio_pin_clear                       0x0001d531   Thumb Code    10  bsp.o(i.nrf_gpio_pin_clear)
    i.nrf_gpio_pin_read                      0x0001d540   Section        0  bsp.o(i.nrf_gpio_pin_read)
    nrf_gpio_pin_read                        0x0001d541   Thumb Code    12  bsp.o(i.nrf_gpio_pin_read)
    i.nrf_gpio_pin_set                       0x0001d550   Section        0  bsp.o(i.nrf_gpio_pin_set)
    nrf_gpio_pin_set                         0x0001d551   Thumb Code    10  bsp.o(i.nrf_gpio_pin_set)
    i.nrf_gpio_pin_toggle                    0x0001d560   Section        0  bsp.o(i.nrf_gpio_pin_toggle)
    nrf_gpio_pin_toggle                      0x0001d561   Thumb Code    20  bsp.o(i.nrf_gpio_pin_toggle)
    i.nrf_gpiote_event_clear                 0x0001d578   Section        0  nrf_drv_gpiote.o(i.nrf_gpiote_event_clear)
    nrf_gpiote_event_clear                   0x0001d579   Thumb Code    10  nrf_drv_gpiote.o(i.nrf_gpiote_event_clear)
    i.nrf_gpiote_event_is_set                0x0001d588   Section        0  nrf_drv_gpiote.o(i.nrf_gpiote_event_is_set)
    nrf_gpiote_event_is_set                  0x0001d589   Thumb Code    14  nrf_drv_gpiote.o(i.nrf_gpiote_event_is_set)
    i.nrf_uart_event_check                   0x0001d59c   Section        0  nrf_drv_uart.o(i.nrf_uart_event_check)
    nrf_uart_event_check                     0x0001d59d   Thumb Code    10  nrf_drv_uart.o(i.nrf_uart_event_check)
    i.nrf_uart_int_enable_check              0x0001d5a6   Section        0  nrf_drv_uart.o(i.nrf_uart_int_enable_check)
    nrf_uart_int_enable_check                0x0001d5a7   Thumb Code    16  nrf_drv_uart.o(i.nrf_uart_int_enable_check)
    i.nus_data_handler                       0x0001d5b6   Section        0  main.o(i.nus_data_handler)
    nus_data_handler                         0x0001d5b7   Thumb Code    48  main.o(i.nus_data_handler)
    i.on_adv_evt                             0x0001d5e6   Section        0  main.o(i.on_adv_evt)
    on_adv_evt                               0x0001d5e7   Thumb Code    32  main.o(i.on_adv_evt)
    i.on_ble_evt                             0x0001d608   Section        0  main.o(i.on_ble_evt)
    on_ble_evt                               0x0001d609   Thumb Code   204  main.o(i.on_ble_evt)
    i.on_conn_params_evt                     0x0001d6d8   Section        0  main.o(i.on_conn_params_evt)
    on_conn_params_evt                       0x0001d6d9   Thumb Code    26  main.o(i.on_conn_params_evt)
    i.pin_in_use_by_port                     0x0001d6f8   Section        0  nrf_drv_gpiote.o(i.pin_in_use_by_port)
    pin_in_use_by_port                       0x0001d6f9   Thumb Code    20  nrf_drv_gpiote.o(i.pin_in_use_by_port)
    i.pin_in_use_by_te                       0x0001d710   Section        0  nrf_drv_gpiote.o(i.pin_in_use_by_te)
    pin_in_use_by_te                         0x0001d711   Thumb Code    20  nrf_drv_gpiote.o(i.pin_in_use_by_te)
    i.rtc1_stop                              0x0001d728   Section        0  app_timer.o(i.rtc1_stop)
    rtc1_stop                                0x0001d729   Thumb Code    50  app_timer.o(i.rtc1_stop)
    i.rx_byte                                0x0001d76c   Section        0  nrf_drv_uart.o(i.rx_byte)
    rx_byte                                  0x0001d76d   Thumb Code    38  nrf_drv_uart.o(i.rx_byte)
    i.rx_char_add                            0x0001d792   Section        0  ble_nus.o(i.rx_char_add)
    rx_char_add                              0x0001d793   Thumb Code   158  ble_nus.o(i.rx_char_add)
    i.rx_done_event                          0x0001d830   Section        0  nrf_drv_uart.o(i.rx_done_event)
    rx_done_event                            0x0001d831   Thumb Code    20  nrf_drv_uart.o(i.rx_done_event)
    i.rx_enable                              0x0001d844   Section        0  nrf_drv_uart.o(i.rx_enable)
    rx_enable                                0x0001d845   Thumb Code    26  nrf_drv_uart.o(i.rx_enable)
    i.sd_nvic_EnableIRQ                      0x0001d860   Section        0  softdevice_handler.o(i.sd_nvic_EnableIRQ)
    sd_nvic_EnableIRQ                        0x0001d861   Thumb Code   112  softdevice_handler.o(i.sd_nvic_EnableIRQ)
    i.service_data_encode                    0x0001d8e4   Section        0  ble_advdata.o(i.service_data_encode)
    service_data_encode                      0x0001d8e5   Thumb Code   142  ble_advdata.o(i.service_data_encode)
    i.set_adv_mode_fast                      0x0001d974   Section        0  ble_advertising.o(i.set_adv_mode_fast)
    set_adv_mode_fast                        0x0001d975   Thumb Code    80  ble_advertising.o(i.set_adv_mode_fast)
    i.set_adv_mode_slow                      0x0001d9cc   Section        0  ble_advertising.o(i.set_adv_mode_slow)
    set_adv_mode_slow                        0x0001d9cd   Thumb Code    76  ble_advertising.o(i.set_adv_mode_slow)
    i.sleep_mode_enter                       0x0001da20   Section        0  main.o(i.sleep_mode_enter)
    sleep_mode_enter                         0x0001da21   Thumb Code    40  main.o(i.sleep_mode_enter)
    i.softdevice_ble_evt_handler_set         0x0001da48   Section        0  softdevice_handler.o(i.softdevice_ble_evt_handler_set)
    i.softdevice_enable                      0x0001da5c   Section        0  softdevice_handler.o(i.softdevice_enable)
    i.softdevice_enable_get_default_config   0x0001da70   Section        0  softdevice_handler.o(i.softdevice_enable_get_default_config)
    i.softdevice_fault_handler               0x0001da98   Section        0  softdevice_handler.o(i.softdevice_fault_handler)
    i.softdevice_handler_init                0x0001daa0   Section        0  softdevice_handler.o(i.softdevice_handler_init)
    i.softdevice_handler_is_enabled          0x0001daf8   Section        0  softdevice_handler.o(i.softdevice_handler_is_enabled)
    i.timer_list_handler                     0x0001db04   Section        0  app_timer.o(i.timer_list_handler)
    timer_list_handler                       0x0001db05   Thumb Code   128  app_timer.o(i.timer_list_handler)
    i.timer_list_handler_sched               0x0001db88   Section        0  app_timer.o(i.timer_list_handler_sched)
    timer_list_handler_sched                 0x0001db89   Thumb Code    10  app_timer.o(i.timer_list_handler_sched)
    i.timer_list_insert                      0x0001db98   Section        0  app_timer.o(i.timer_list_insert)
    timer_list_insert                        0x0001db99   Thumb Code    60  app_timer.o(i.timer_list_insert)
    i.timer_stop_op_schedule                 0x0001dbd8   Section        0  app_timer.o(i.timer_stop_op_schedule)
    timer_stop_op_schedule                   0x0001dbd9   Thumb Code    68  app_timer.o(i.timer_stop_op_schedule)
    i.timer_timeouts_check                   0x0001dc20   Section        0  app_timer.o(i.timer_timeouts_check)
    timer_timeouts_check                     0x0001dc21   Thumb Code   118  app_timer.o(i.timer_timeouts_check)
    i.tx_byte                                0x0001dca0   Section        0  nrf_drv_uart.o(i.tx_byte)
    tx_byte                                  0x0001dca1   Thumb Code    30  nrf_drv_uart.o(i.tx_byte)
    i.tx_char_add                            0x0001dcbe   Section        0  ble_nus.o(i.tx_char_add)
    tx_char_add                              0x0001dcbf   Thumb Code   128  ble_nus.o(i.tx_char_add)
    i.tx_done_event                          0x0001dd3e   Section        0  nrf_drv_uart.o(i.tx_done_event)
    tx_done_event                            0x0001dd3f   Thumb Code    24  nrf_drv_uart.o(i.tx_done_event)
    i.uart_event_handle                      0x0001dd58   Section        0  main.o(i.uart_event_handle)
    i.uart_event_handler                     0x0001ddb8   Section        0  app_uart_fifo.o(i.uart_event_handler)
    uart_event_handler                       0x0001ddb9   Thumb Code   168  app_uart_fifo.o(i.uart_event_handler)
    i.uart_irq_handler                       0x0001de68   Section        0  nrf_drv_uart.o(i.uart_irq_handler)
    uart_irq_handler                         0x0001de69   Thumb Code   296  nrf_drv_uart.o(i.uart_irq_handler)
    i.uint16_encode                          0x0001df90   Section        0  ble_advdata.o(i.uint16_encode)
    uint16_encode                            0x0001df91   Thumb Code    10  ble_advdata.o(i.uint16_encode)
    i.update_timeout_handler                 0x0001df9c   Section        0  ble_conn_params.o(i.update_timeout_handler)
    update_timeout_handler                   0x0001df9d   Thumb Code    86  ble_conn_params.o(i.update_timeout_handler)
    i.user_op_alloc                          0x0001e000   Section        0  app_timer.o(i.user_op_alloc)
    user_op_alloc                            0x0001e001   Thumb Code    40  app_timer.o(i.user_op_alloc)
    i.uuid_list_encode                       0x0001e02c   Section        0  ble_advdata.o(i.uuid_list_encode)
    uuid_list_encode                         0x0001e02d   Thumb Code    48  ble_advdata.o(i.uuid_list_encode)
    i.uuid_list_sized_encode                 0x0001e05c   Section        0  ble_advdata.o(i.uuid_list_sized_encode)
    uuid_list_sized_encode                   0x0001e05d   Thumb Code   174  ble_advdata.o(i.uuid_list_sized_encode)
    i.whitelist_has_entries                  0x0001e10c   Section        0  ble_advertising.o(i.whitelist_has_entries)
    whitelist_has_entries                    0x0001e10d   Thumb Code    18  ble_advertising.o(i.whitelist_has_entries)
    .constdata                               0x0001e124   Section       28  main.o(.constdata)
    .constdata                               0x0001e140   Section       60  bsp.o(.constdata)
    m_leds_timer_id                          0x0001e140   Data           4  bsp.o(.constdata)
    m_alert_timer_id                         0x0001e144   Data           4  bsp.o(.constdata)
    m_button_timer_id                        0x0001e148   Data           4  bsp.o(.constdata)
    m_buttons_list                           0x0001e14c   Data          16  bsp.o(.constdata)
    app_buttons                              0x0001e15c   Data          32  bsp.o(.constdata)
    .constdata                               0x0001e17c   Section        4  ble_conn_params.o(.constdata)
    m_conn_params_timer_id                   0x0001e17c   Data           4  ble_conn_params.o(.constdata)
    .constdata                               0x0001e180   Section       16  ble_nus.o(.constdata)
    .constdata                               0x0001e190   Section        8  app_button.o(.constdata)
    m_detection_delay_timer_id               0x0001e190   Data           4  app_button.o(.constdata)
    .constdata                               0x0001e198   Section       32  app_uart_fifo.o(.constdata)
    .data                                    0x20001fe8   Section        8  main.o(.data)
    index                                    0x20001fe8   Data           1  main.o(.data)
    m_conn_handle                            0x20001fea   Data           2  main.o(.data)
    m_adv_uuids                              0x20001fec   Data           4  main.o(.data)
    .data                                    0x20001ff0   Section       20  bsp.o(.data)
    m_stable_state                           0x20001ff0   Data           1  bsp.o(.data)
    current_long_push_pin_no                 0x20001ff1   Data           1  bsp.o(.data)
    m_app_ticks_per_100ms                    0x20001ff4   Data           4  bsp.o(.data)
    m_indication_type                        0x20001ff8   Data           4  bsp.o(.data)
    m_registered_callback                    0x20001ffc   Data           4  bsp.o(.data)
    release_event_at_push                    0x20002000   Data           4  bsp.o(.data)
    .data                                    0x20002004   Section        8  bsp_btn_ble.o(.data)
    m_error_handler                          0x20002004   Data           4  bsp_btn_ble.o(.data)
    m_num_connections                        0x20002008   Data           4  bsp_btn_ble.o(.data)
    .data                                    0x2000200c   Section       48  ble_advertising.o(.data)
    m_initialized                            0x2000200c   Data           1  ble_advertising.o(.data)
    m_advertising_start_pending              0x2000200d   Data           1  ble_advertising.o(.data)
    m_adv_evt                                0x2000200e   Data           1  ble_advertising.o(.data)
    m_adv_mode_current                       0x2000200f   Data           1  ble_advertising.o(.data)
    m_peer_addr_reply_expected               0x20002010   Data           1  ble_advertising.o(.data)
    m_whitelist_temporarily_disabled         0x20002011   Data           1  ble_advertising.o(.data)
    m_whitelist_reply_expected               0x20002012   Data           1  ble_advertising.o(.data)
    m_current_slave_link_conn_handle         0x20002014   Data           2  ble_advertising.o(.data)
    m_slave_conn_int                         0x20002016   Data           4  ble_advertising.o(.data)
    m_evt_handler                            0x2000201c   Data           4  ble_advertising.o(.data)
    m_error_handler                          0x20002020   Data           4  ble_advertising.o(.data)
    m_peer_address                           0x20002024   Data           7  ble_advertising.o(.data)
    m_whitelist                              0x2000202c   Data          16  ble_advertising.o(.data)
    .data                                    0x2000203c   Section       20  ble_conn_params.o(.data)
    m_change_param                           0x2000203c   Data           1  ble_conn_params.o(.data)
    m_update_count                           0x2000203d   Data           1  ble_conn_params.o(.data)
    m_conn_handle                            0x2000203e   Data           2  ble_conn_params.o(.data)
    m_preferred_conn_params                  0x20002040   Data           8  ble_conn_params.o(.data)
    m_current_conn_params                    0x20002048   Data           8  ble_conn_params.o(.data)
    .data                                    0x20002050   Section       20  app_button.o(.data)
    m_button_count                           0x20002050   Data           1  app_button.o(.data)
    mp_buttons                               0x20002054   Data           4  app_button.o(.data)
    m_detection_delay                        0x20002058   Data           4  app_button.o(.data)
    m_pin_state                              0x2000205c   Data           4  app_button.o(.data)
    m_pin_transition                         0x20002060   Data           4  app_button.o(.data)
    .data                                    0x20002064   Section       32  app_timer.o(.data)
    m_ticks_elapsed_q_read_ind               0x20002064   Data           1  app_timer.o(.data)
    m_ticks_elapsed_q_write_ind              0x20002065   Data           1  app_timer.o(.data)
    m_rtc1_running                           0x20002066   Data           1  app_timer.o(.data)
    m_rtc1_reset                             0x20002067   Data           1  app_timer.o(.data)
    mp_timer_id_head                         0x20002068   Data           4  app_timer.o(.data)
    m_ticks_latest                           0x2000206c   Data           4  app_timer.o(.data)
    m_evt_schedule_func                      0x20002070   Data           4  app_timer.o(.data)
    m_op_queue                               0x20002074   Data           8  app_timer.o(.data)
    m_ticks_elapsed                          0x2000207c   Data           8  app_timer.o(.data)
    .data                                    0x20002084   Section       16  app_uart_fifo.o(.data)
    tx_buffer                                0x20002084   Data           1  app_uart_fifo.o(.data)
    rx_buffer                                0x20002085   Data           1  app_uart_fifo.o(.data)
    m_rx_ovf                                 0x20002086   Data           1  app_uart_fifo.o(.data)
    m_event_handler                          0x20002088   Data           4  app_uart_fifo.o(.data)
    app_uart_inst                            0x2000208c   Data           8  app_uart_fifo.o(.data)
    .data                                    0x20002094   Section       12  app_util_platform.o(.data)
    m_in_critical_region                     0x20002094   Data           4  app_util_platform.o(.data)
    .data                                    0x200020a0   Section        4  retarget.o(.data)
    .data                                    0x200020a4   Section       20  softdevice_handler.o(.data)
    m_softdevice_enabled                     0x200020a4   Data           1  softdevice_handler.o(.data)
    m_suspended                              0x200020a5   Data           1  softdevice_handler.o(.data)
    m_ble_evt_buffer_size                    0x200020a6   Data           2  softdevice_handler.o(.data)
    m_evt_schedule_func                      0x200020a8   Data           4  softdevice_handler.o(.data)
    mp_ble_evt_buffer                        0x200020ac   Data           4  softdevice_handler.o(.data)
    m_ble_evt_handler                        0x200020b0   Data           4  softdevice_handler.o(.data)
    m_sys_evt_handler                        0x200020b4   Data           4  softdevice_handler.o(.data)
    .data                                    0x200020b8   Section        4  system_nrf51.o(.data)
    __tagsym$$used                           0x200020b8   Number         0  system_nrf51.o(.data)
    .bss                                     0x200020bc   Section      752  main.o(.bss)
    BLE_EVT_BUFFER                           0x200020bc   Data          72  main.o(.bss)
    data_array                               0x20002104   Data          20  main.o(.bss)
    rx_buf                                   0x20002118   Data         256  main.o(.bss)
    tx_buf                                   0x20002218   Data         256  main.o(.bss)
    APP_TIMER_BUF                            0x20002318   Data         120  main.o(.bss)
    m_nus                                    0x20002390   Data          28  main.o(.bss)
    .bss                                     0x200023ac   Section       32  bsp.o(.bss)
    m_leds_timer_id_data                     0x200023ac   Data          32  bsp.o(.bss)
    .bss                                     0x200023cc   Section       32  bsp.o(.bss)
    m_alert_timer_id_data                    0x200023cc   Data          32  bsp.o(.bss)
    .bss                                     0x200023ec   Section       12  bsp.o(.bss)
    m_events_list                            0x200023ec   Data          12  bsp.o(.bss)
    .bss                                     0x200023f8   Section       32  bsp.o(.bss)
    m_button_timer_id_data                   0x200023f8   Data          32  bsp.o(.bss)
    .bss                                     0x20002418   Section      359  ble_advertising.o(.bss)
    m_adv_modes_config                       0x20002418   Data          32  ble_advertising.o(.bss)
    m_advdata                                0x20002438   Data          56  ble_advertising.o(.bss)
    m_manuf_specific_data                    0x20002470   Data          12  ble_advertising.o(.bss)
    m_manuf_data_array                       0x2000247c   Data          31  ble_advertising.o(.bss)
    m_service_data                           0x2000249c   Data          12  ble_advertising.o(.bss)
    m_service_data_array                     0x200024a8   Data          31  ble_advertising.o(.bss)
    m_whitelist_addrs                        0x200024c7   Data          56  ble_advertising.o(.bss)
    m_whitelist_irks                         0x200024ff   Data         128  ble_advertising.o(.bss)
    .bss                                     0x20002580   Section       32  ble_advertising.o(.bss)
    m_p_whitelist_addrs                      0x20002580   Data          32  ble_advertising.o(.bss)
    .bss                                     0x200025a0   Section       32  ble_advertising.o(.bss)
    m_p_whitelist_irks                       0x200025a0   Data          32  ble_advertising.o(.bss)
    .bss                                     0x200025c0   Section       32  ble_conn_params.o(.bss)
    m_conn_params_timer_id_data              0x200025c0   Data          32  ble_conn_params.o(.bss)
    .bss                                     0x200025e0   Section       28  ble_conn_params.o(.bss)
    m_conn_params_config                     0x200025e0   Data          28  ble_conn_params.o(.bss)
    .bss                                     0x200025fc   Section       20  nrf_drv_clock.o(.bss)
    m_clock_cb                               0x200025fc   Data          20  nrf_drv_clock.o(.bss)
    .bss                                     0x20002610   Section       72  nrf_drv_gpiote.o(.bss)
    m_cb                                     0x20002610   Data          72  nrf_drv_gpiote.o(.bss)
    .bss                                     0x20002658   Section       28  nrf_drv_uart.o(.bss)
    m_cb                                     0x20002658   Data          28  nrf_drv_uart.o(.bss)
    .bss                                     0x20002674   Section       32  app_button.o(.bss)
    m_detection_delay_timer_id_data          0x20002674   Data          32  app_button.o(.bss)
    .bss                                     0x20002694   Section       32  app_uart_fifo.o(.bss)
    m_rx_fifo                                0x20002694   Data          16  app_uart_fifo.o(.bss)
    m_tx_fifo                                0x200026a4   Data          16  app_uart_fifo.o(.bss)
    .bss                                     0x200026b4   Section      104  fstorage.o(.bss)
    m_queue                                  0x200026b4   Data         104  fstorage.o(.bss)
    STACK                                    0x20002720   Section     2048  arm_startup_nrf51.o(STACK)

    Global Symbols

    Symbol Name                              Value     Ov Type        Size  Object(Section)

    BuildAttributes$$THM_ISAv3M$S$PE$A:L22$X:L11$S22$IEEE1$IW$USESV6$~STKCKD$USESV7$~SHL$OSPACE$ROPI$EBA8$MICROLIB$REQ8$PRES8$EABIv2 0x00000000   Number         0  anon$$obj.o ABSOLUTE
    __ARM_use_no_argv                        0x00000000   Number         0  main.o ABSOLUTE
    __cpp_initialize__aeabi_                  - Undefined Weak Reference
    __cxa_finalize                            - Undefined Weak Reference
    __decompress                              - Undefined Weak Reference
    _clock_init                               - Undefined Weak Reference
    _microlib_exit                            - Undefined Weak Reference
    fs_data$$Base                             - Undefined Reference
    fs_data$$Limit                            - Undefined Reference
    __Vectors_Size                           0x000000c0   Number         0  arm_startup_nrf51.o ABSOLUTE
    __Vectors                                0x0001b000   Data           4  arm_startup_nrf51.o(RESET)
    __Vectors_End                            0x0001b0c0   Data           0  arm_startup_nrf51.o(RESET)
    __main                                   0x0001b0c1   Thumb Code     0  entry.o(.ARM.Collect$$$$00000000)
    _main_stk                                0x0001b0c1   Thumb Code     0  entry2.o(.ARM.Collect$$$$00000001)
    _main_scatterload                        0x0001b0c5   Thumb Code     0  entry5.o(.ARM.Collect$$$$00000004)
    __main_after_scatterload                 0x0001b0c9   Thumb Code     0  entry5.o(.ARM.Collect$$$$00000004)
    _main_clock                              0x0001b0c9   Thumb Code     0  entry7b.o(.ARM.Collect$$$$00000008)
    _main_cpp_init                           0x0001b0c9   Thumb Code     0  entry8b.o(.ARM.Collect$$$$0000000A)
    _main_init                               0x0001b0c9   Thumb Code     0  entry9a.o(.ARM.Collect$$$$0000000B)
    __rt_final_cpp                           0x0001b0d1   Thumb Code     0  entry10a.o(.ARM.Collect$$$$0000000D)
    __rt_final_exit                          0x0001b0d1   Thumb Code     0  entry11a.o(.ARM.Collect$$$$0000000F)
    Reset_Handler                            0x0001b0d5   Thumb Code    26  arm_startup_nrf51.o(.text)
    NMI_Handler                              0x0001b0ef   Thumb Code     2  arm_startup_nrf51.o(.text)
    HardFault_Handler                        0x0001b0f1   Thumb Code     2  arm_startup_nrf51.o(.text)
    SVC_Handler                              0x0001b0f3   Thumb Code     2  arm_startup_nrf51.o(.text)
    PendSV_Handler                           0x0001b0f5   Thumb Code     2  arm_startup_nrf51.o(.text)
    SysTick_Handler                          0x0001b0f7   Thumb Code     2  arm_startup_nrf51.o(.text)
    ADC_IRQHandler                           0x0001b0f9   Thumb Code     0  arm_startup_nrf51.o(.text)
    CCM_AAR_IRQHandler                       0x0001b0f9   Thumb Code     0  arm_startup_nrf51.o(.text)
    ECB_IRQHandler                           0x0001b0f9   Thumb Code     0  arm_startup_nrf51.o(.text)
    LPCOMP_IRQHandler                        0x0001b0f9   Thumb Code     0  arm_startup_nrf51.o(.text)
    QDEC_IRQHandler                          0x0001b0f9   Thumb Code     0  arm_startup_nrf51.o(.text)
    RADIO_IRQHandler                         0x0001b0f9   Thumb Code     0  arm_startup_nrf51.o(.text)
    RNG_IRQHandler                           0x0001b0f9   Thumb Code     0  arm_startup_nrf51.o(.text)
    RTC0_IRQHandler                          0x0001b0f9   Thumb Code     0  arm_startup_nrf51.o(.text)
    SPI0_TWI0_IRQHandler                     0x0001b0f9   Thumb Code     0  arm_startup_nrf51.o(.text)
    SPI1_TWI1_IRQHandler                     0x0001b0f9   Thumb Code     0  arm_startup_nrf51.o(.text)
    SWI1_IRQHandler                          0x0001b0f9   Thumb Code     0  arm_startup_nrf51.o(.text)
    SWI3_IRQHandler                          0x0001b0f9   Thumb Code     0  arm_startup_nrf51.o(.text)
    SWI4_IRQHandler                          0x0001b0f9   Thumb Code     0  arm_startup_nrf51.o(.text)
    SWI5_IRQHandler                          0x0001b0f9   Thumb Code     0  arm_startup_nrf51.o(.text)
    TEMP_IRQHandler                          0x0001b0f9   Thumb Code     0  arm_startup_nrf51.o(.text)
    TIMER0_IRQHandler                        0x0001b0f9   Thumb Code     0  arm_startup_nrf51.o(.text)
    TIMER1_IRQHandler                        0x0001b0f9   Thumb Code     0  arm_startup_nrf51.o(.text)
    TIMER2_IRQHandler                        0x0001b0f9   Thumb Code     0  arm_startup_nrf51.o(.text)
    WDT_IRQHandler                           0x0001b0f9   Thumb Code     0  arm_startup_nrf51.o(.text)
    __aeabi_uidiv                            0x0001b10d   Thumb Code     0  uidiv.o(.text)
    __aeabi_uidivmod                         0x0001b10d   Thumb Code    44  uidiv.o(.text)
    __aeabi_memcpy                           0x0001b139   Thumb Code    36  memcpya.o(.text)
    __aeabi_memcpy4                          0x0001b139   Thumb Code     0  memcpya.o(.text)
    __aeabi_memcpy8                          0x0001b139   Thumb Code     0  memcpya.o(.text)
    __aeabi_memset                           0x0001b15d   Thumb Code    14  memseta.o(.text)
    __aeabi_memset4                          0x0001b15d   Thumb Code     0  memseta.o(.text)
    __aeabi_memset8                          0x0001b15d   Thumb Code     0  memseta.o(.text)
    __aeabi_memclr                           0x0001b16b   Thumb Code     4  memseta.o(.text)
    __aeabi_memclr4                          0x0001b16b   Thumb Code     0  memseta.o(.text)
    __aeabi_memclr8                          0x0001b16b   Thumb Code     0  memseta.o(.text)
    _memset$wrapper                          0x0001b16f   Thumb Code    18  memseta.o(.text)
    __scatterload                            0x0001b181   Thumb Code    28  init.o(.text)
    __scatterload_rt2                        0x0001b181   Thumb Code     0  init.o(.text)
    GPIOTE_IRQHandler                        0x0001b1a5   Thumb Code   316  nrf_drv_gpiote.o(i.GPIOTE_IRQHandler)
    POWER_CLOCK_IRQHandler                   0x0001b339   Thumb Code    70  nrf_drv_clock.o(i.POWER_CLOCK_IRQHandler)
    RTC1_IRQHandler                          0x0001b38d   Thumb Code    28  app_timer.o(i.RTC1_IRQHandler)
    SWI0_IRQHandler                          0x0001b3ad   Thumb Code     8  app_timer.o(i.SWI0_IRQHandler)
    SWI2_IRQHandler                          0x0001b3b5   Thumb Code    28  softdevice_handler.o(i.SWI2_IRQHandler)
    SystemInit                               0x0001b3d5   Thumb Code   130  system_nrf51.o(i.SystemInit)
    UART0_IRQHandler                         0x0001b475   Thumb Code    12  nrf_drv_uart.o(i.UART0_IRQHandler)
    __0printf$bare                           0x0001b489   Thumb Code    12  printfb.o(i.__0printf$bare)
    __1printf$bare                           0x0001b489   Thumb Code     0  printfb.o(i.__0printf$bare)
    __2printf                                0x0001b489   Thumb Code     0  printfb.o(i.__0printf$bare)
    __ARM_common_switch8                     0x0001b49d   Thumb Code    26  bsp.o(i.__ARM_common_switch8)
    __scatterload_copy                       0x0001b4b7   Thumb Code    14  handlers.o(i.__scatterload_copy)
    __scatterload_null                       0x0001b4c5   Thumb Code     2  handlers.o(i.__scatterload_null)
    __scatterload_zeroinit                   0x0001b4c7   Thumb Code    14  handlers.o(i.__scatterload_zeroinit)
    adv_data_encode                          0x0001b50f   Thumb Code   398  ble_advdata.o(i.adv_data_encode)
    app_button_enable                        0x0001b74d   Thumb Code    32  app_button.o(i.app_button_enable)
    app_button_init                          0x0001b771   Thumb Code   100  app_button.o(i.app_button_init)
    app_error_fault_handler                  0x0001b7e5   Thumb Code    18  app_error_weak.o(i.app_error_fault_handler)
    app_error_handler_bare                   0x0001b801   Thumb Code    20  app_error.o(i.app_error_handler_bare)
    app_fifo_get                             0x0001b819   Thumb Code    22  app_fifo.o(i.app_fifo_get)
    app_fifo_init                            0x0001b82f   Thumb Code    36  app_fifo.o(i.app_fifo_init)
    app_fifo_put                             0x0001b853   Thumb Code    26  app_fifo.o(i.app_fifo_put)
    app_timer_create                         0x0001b86d   Thumb Code    40  app_timer.o(i.app_timer_create)
    app_timer_init                           0x0001b899   Thumb Code    98  app_timer.o(i.app_timer_init)
    app_timer_start                          0x0001b90d   Thumb Code   128  app_timer.o(i.app_timer_start)
    app_timer_stop                           0x0001b995   Thumb Code    36  app_timer.o(i.app_timer_stop)
    app_uart_get                             0x0001b9bd   Thumb Code    46  app_uart_fifo.o(i.app_uart_get)
    app_uart_init                            0x0001b9f5   Thumb Code   160  app_uart_fifo.o(i.app_uart_init)
    app_uart_put                             0x0001baa5   Thumb Code    56  app_uart_fifo.o(i.app_uart_put)
    app_util_critical_region_enter           0x0001bae5   Thumb Code    48  app_util_platform.o(i.app_util_critical_region_enter)
    app_util_critical_region_exit            0x0001bb21   Thumb Code    36  app_util_platform.o(i.app_util_critical_region_exit)
    ble_advdata_set                          0x0001bb4d   Thumb Code   104  ble_advdata.o(i.ble_advdata_set)
    ble_advertising_init                     0x0001bbb5   Thumb Code   340  ble_advertising.o(i.ble_advertising_init)
    ble_advertising_on_ble_evt               0x0001bd11   Thumb Code    82  ble_advertising.o(i.ble_advertising_on_ble_evt)
    ble_advertising_restart_without_whitelist 0x0001bd69   Thumb Code    50  ble_advertising.o(i.ble_advertising_restart_without_whitelist)
    ble_advertising_start                    0x0001bda5   Thumb Code   256  ble_advertising.o(i.ble_advertising_start)
    ble_conn_params_init                     0x0001bead   Thumb Code    68  ble_conn_params.o(i.ble_conn_params_init)
    ble_conn_params_on_ble_evt               0x0001bf01   Thumb Code   130  ble_conn_params.o(i.ble_conn_params_on_ble_evt)
    ble_nus_init                             0x0001c019   Thumb Code    98  ble_nus.o(i.ble_nus_init)
    ble_nus_on_ble_evt                       0x0001c081   Thumb Code    92  ble_nus.o(i.ble_nus_on_ble_evt)
    ble_nus_string_send                      0x0001c0dd   Thumb Code    78  ble_nus.o(i.ble_nus_string_send)
    ble_srv_is_notification_enabled          0x0001c131   Thumb Code    14  ble_srv_common.o(i.ble_srv_is_notification_enabled)
    bsp_btn_ble_init                         0x0001c141   Thumb Code    80  bsp_btn_ble.o(i.bsp_btn_ble_init)
    bsp_btn_ble_on_ble_evt                   0x0001c195   Thumb Code   114  bsp_btn_ble.o(i.bsp_btn_ble_on_ble_evt)
    bsp_btn_ble_sleep_mode_prepare           0x0001c20d   Thumb Code    20  bsp_btn_ble.o(i.bsp_btn_ble_sleep_mode_prepare)
    bsp_button_is_pressed                    0x0001c2c1   Thumb Code    34  bsp.o(i.bsp_button_is_pressed)
    bsp_event_handler                        0x0001c2ed   Thumb Code    58  main.o(i.bsp_event_handler)
    bsp_event_to_button_action_assign        0x0001c331   Thumb Code    66  bsp.o(i.bsp_event_to_button_action_assign)
    bsp_indication_set                       0x0001c379   Thumb Code    22  bsp.o(i.bsp_indication_set)
    bsp_init                                 0x0001c395   Thumb Code   142  bsp.o(i.bsp_init)
    bsp_wakeup_buttons_set                   0x0001c5ad   Thumb Code    50  bsp.o(i.bsp_wakeup_buttons_set)
    fputc                                    0x0001c8f7   Thumb Code    14  retarget.o(i.fputc)
    fs_queued_op_count_get                   0x0001c905   Thumb Code    18  fstorage.o(i.fs_queued_op_count_get)
    intern_softdevice_events_execute         0x0001c96d   Thumb Code   122  softdevice_handler.o(i.intern_softdevice_events_execute)
    main                                     0x0001cbd1   Thumb Code   438  main.o(i.main)
    nrf_drv_clock_init                       0x0001cf1d   Thumb Code    50  nrf_drv_clock.o(i.nrf_drv_clock_init)
    nrf_drv_clock_on_sd_enable               0x0001cf59   Thumb Code    46  nrf_drv_clock.o(i.nrf_drv_clock_on_sd_enable)
    nrf_drv_clock_on_soc_event               0x0001cf8d   Thumb Code    12  nrf_drv_clock.o(i.nrf_drv_clock_on_soc_event)
    nrf_drv_common_irq_enable                0x0001cf99   Thumb Code    78  nrf_drv_common.o(i.nrf_drv_common_irq_enable)
    nrf_drv_gpiote_in_event_enable           0x0001cff9   Thumb Code   134  nrf_drv_gpiote.o(i.nrf_drv_gpiote_in_event_enable)
    nrf_drv_gpiote_in_init                   0x0001d091   Thumb Code   146  nrf_drv_gpiote.o(i.nrf_drv_gpiote_in_init)
    nrf_drv_gpiote_in_is_set                 0x0001d135   Thumb Code    16  nrf_drv_gpiote.o(i.nrf_drv_gpiote_in_is_set)
    nrf_drv_gpiote_init                      0x0001d149   Thumb Code    84  nrf_drv_gpiote.o(i.nrf_drv_gpiote_init)
    nrf_drv_gpiote_is_init                   0x0001d1a5   Thumb Code    12  nrf_drv_gpiote.o(i.nrf_drv_gpiote_is_init)
    nrf_drv_uart_init                        0x0001d1b5   Thumb Code   214  nrf_drv_uart.o(i.nrf_drv_uart_init)
    nrf_drv_uart_rx                          0x0001d299   Thumb Code    86  nrf_drv_uart.o(i.nrf_drv_uart_rx)
    nrf_drv_uart_rx_enable                   0x0001d2f5   Thumb Code    40  nrf_drv_uart.o(i.nrf_drv_uart_rx_enable)
    nrf_drv_uart_tx                          0x0001d3c9   Thumb Code    46  nrf_drv_uart.o(i.nrf_drv_uart_tx)
    nrf_drv_uart_tx_in_progress              0x0001d489   Thumb Code    20  nrf_drv_uart.o(i.nrf_drv_uart_tx_in_progress)
    softdevice_ble_evt_handler_set           0x0001da49   Thumb Code    16  softdevice_handler.o(i.softdevice_ble_evt_handler_set)
    softdevice_enable                        0x0001da5d   Thumb Code    14  softdevice_handler.o(i.softdevice_enable)
    softdevice_enable_get_default_config     0x0001da71   Thumb Code    40  softdevice_handler.o(i.softdevice_enable_get_default_config)
    softdevice_fault_handler                 0x0001da99   Thumb Code     8  softdevice_handler.o(i.softdevice_fault_handler)
    softdevice_handler_init                  0x0001daa1   Thumb Code    74  softdevice_handler.o(i.softdevice_handler_init)
    softdevice_handler_is_enabled            0x0001daf9   Thumb Code     6  softdevice_handler.o(i.softdevice_handler_is_enabled)
    uart_event_handle                        0x0001dd59   Thumb Code    84  main.o(i.uart_event_handle)
    Region$$Table$$Base                      0x0001e1b8   Number         0  anon$$obj.o(Region$$Table)
    Region$$Table$$Limit                     0x0001e1d8   Number         0  anon$$obj.o(Region$$Table)
    Image$$RW_IRAM1$$Base                    0x20001fe8   Number         0  anon$$obj.o ABSOLUTE
    nrf_nvic_state                           0x20002098   Data           8  app_util_platform.o(.data)
    __stdout                                 0x200020a0   Data           4  retarget.o(.data)
    SystemCoreClock                          0x200020b8   Data           4  system_nrf51.o(.data)
    __initial_sp                             0x20002f20   Data           0  arm_startup_nrf51.o(STACK)



==============================================================================

Memory Map of the image

  Image Entry point : 0x0001b0c1

  Load Region LR_IROM1 (Base: 0x0001b000, Size: 0x000032ac, Max: 0x00025000, ABSOLUTE)

    Execution Region ER_IROM1 (Base: 0x0001b000, Size: 0x000031d8, Max: 0x00025000, ABSOLUTE)

    Base Addr    Size         Type   Attr      Idx    E Section Name        Object

    0x0001b000   0x000000c0   Data   RO         2074    RESET               arm_startup_nrf51.o
    0x0001b0c0   0x00000000   Code   RO         2116  * .ARM.Collect$$$$00000000  mc_p.l(entry.o)
    0x0001b0c0   0x00000004   Code   RO         2389    .ARM.Collect$$$$00000001  mc_p.l(entry2.o)
    0x0001b0c4   0x00000004   Code   RO         2392    .ARM.Collect$$$$00000004  mc_p.l(entry5.o)
    0x0001b0c8   0x00000000   Code   RO         2394    .ARM.Collect$$$$00000008  mc_p.l(entry7b.o)
    0x0001b0c8   0x00000000   Code   RO         2396    .ARM.Collect$$$$0000000A  mc_p.l(entry8b.o)
    0x0001b0c8   0x00000008   Code   RO         2397    .ARM.Collect$$$$0000000B  mc_p.l(entry9a.o)
    0x0001b0d0   0x00000000   Code   RO         2399    .ARM.Collect$$$$0000000D  mc_p.l(entry10a.o)
    0x0001b0d0   0x00000000   Code   RO         2401    .ARM.Collect$$$$0000000F  mc_p.l(entry11a.o)
    0x0001b0d0   0x00000004   Code   RO         2390    .ARM.Collect$$$$00002712  mc_p.l(entry2.o)
    0x0001b0d4   0x00000038   Code   RO         2075    .text               arm_startup_nrf51.o
    0x0001b10c   0x0000002c   Code   RO         2119    .text               mc_p.l(uidiv.o)
    0x0001b138   0x00000024   Code   RO         2121    .text               mc_p.l(memcpya.o)
    0x0001b15c   0x00000024   Code   RO         2123    .text               mc_p.l(memseta.o)
    0x0001b180   0x00000024   Code   RO         2416    .text               mc_p.l(init.o)
    0x0001b1a4   0x00000150   Code   RO          966    i.GPIOTE_IRQHandler  nrf_drv_gpiote.o
    0x0001b2f4   0x00000044   Code   RO         1532    i.NVIC_SetPriority  app_timer.o
    0x0001b338   0x00000054   Code   RO          782    i.POWER_CLOCK_IRQHandler  nrf_drv_clock.o
    0x0001b38c   0x00000020   Code   RO         1533    i.RTC1_IRQHandler   app_timer.o
    0x0001b3ac   0x00000008   Code   RO         1534    i.SWI0_IRQHandler   app_timer.o
    0x0001b3b4   0x00000020   Code   RO         1944    i.SWI2_IRQHandler   softdevice_handler.o
    0x0001b3d4   0x000000a0   Code   RO         2082    i.SystemInit        system_nrf51.o
    0x0001b474   0x00000014   Code   RO         1167    i.UART0_IRQHandler  nrf_drv_uart.o
    0x0001b488   0x00000014   Code   RO         2130    i.__0printf$bare    mc_p.l(printfb.o)
    0x0001b49c   0x0000001a   Code   RO          378    i.__ARM_common_switch8  bsp.o
    0x0001b4b6   0x0000000e   Code   RO         2430    i.__scatterload_copy  mc_p.l(handlers.o)
    0x0001b4c4   0x00000002   Code   RO         2431    i.__scatterload_null  mc_p.l(handlers.o)
    0x0001b4c6   0x0000000e   Code   RO         2432    i.__scatterload_zeroinit  mc_p.l(handlers.o)
    0x0001b4d4   0x0000001c   Code   RO         1945    i.__sd_nvic_app_accessible_irq  softdevice_handler.o
    0x0001b4f0   0x0000001e   Code   RO         2137    i._printf_core      mc_p.l(printfb.o)
    0x0001b50e   0x0000018e   Code   RO          438    i.adv_data_encode   ble_advdata.o
    0x0001b69c   0x00000068   Code   RO          523    i.adv_mode_next_avail_get  ble_advertising.o
    0x0001b704   0x0000003c   Code   RO          399    i.advertising_buttons_configure  bsp_btn_ble.o
    0x0001b740   0x0000000a   Code   RO          258    i.alert_timer_handler  bsp.o
    0x0001b74a   0x00000002   PAD
    0x0001b74c   0x00000024   Code   RO         1332    i.app_button_enable  app_button.o
    0x0001b770   0x00000074   Code   RO         1333    i.app_button_init   app_button.o
    0x0001b7e4   0x0000001c   Code   RO         1434    i.app_error_fault_handler  app_error_weak.o
    0x0001b800   0x00000018   Code   RO         1393    i.app_error_handler_bare  app_error.o
    0x0001b818   0x00000016   Code   RO         1461    i.app_fifo_get      app_fifo.o
    0x0001b82e   0x00000024   Code   RO         1462    i.app_fifo_init     app_fifo.o
    0x0001b852   0x0000001a   Code   RO         1464    i.app_fifo_put      app_fifo.o
    0x0001b86c   0x0000002c   Code   RO         1537    i.app_timer_create  app_timer.o
    0x0001b898   0x00000074   Code   RO         1538    i.app_timer_init    app_timer.o
    0x0001b90c   0x00000088   Code   RO         1539    i.app_timer_start   app_timer.o
    0x0001b994   0x00000028   Code   RO         1540    i.app_timer_stop    app_timer.o
    0x0001b9bc   0x00000038   Code   RO         1682    i.app_uart_get      app_uart_fifo.o
    0x0001b9f4   0x000000b0   Code   RO         1683    i.app_uart_init     app_uart_fifo.o
    0x0001baa4   0x00000040   Code   RO         1684    i.app_uart_put      app_uart_fifo.o
    0x0001bae4   0x0000003c   Code   RO         1742    i.app_util_critical_region_enter  app_util_platform.o
    0x0001bb20   0x0000002c   Code   RO         1743    i.app_util_critical_region_exit  app_util_platform.o
    0x0001bb4c   0x00000068   Code   RO          439    i.ble_advdata_set   ble_advdata.o
    0x0001bbb4   0x0000015c   Code   RO          524    i.ble_advertising_init  ble_advertising.o
    0x0001bd10   0x00000058   Code   RO          525    i.ble_advertising_on_ble_evt  ble_advertising.o
    0x0001bd68   0x0000003c   Code   RO          528    i.ble_advertising_restart_without_whitelist  ble_advertising.o
    0x0001bda4   0x00000108   Code   RO          529    i.ble_advertising_start  ble_advertising.o
    0x0001beac   0x00000054   Code   RO          620    i.ble_conn_params_init  ble_conn_params.o
    0x0001bf00   0x00000090   Code   RO          621    i.ble_conn_params_on_ble_evt  ble_conn_params.o
    0x0001bf90   0x0000005e   Code   RO          440    i.ble_device_addr_encode  ble_advdata.o
    0x0001bfee   0x00000002   PAD
    0x0001bff0   0x00000028   Code   RO            4    i.ble_evt_dispatch  main.o
    0x0001c018   0x00000068   Code   RO          739    i.ble_nus_init      ble_nus.o
    0x0001c080   0x0000005c   Code   RO          740    i.ble_nus_on_ble_evt  ble_nus.o
    0x0001c0dc   0x00000054   Code   RO          741    i.ble_nus_string_send  ble_nus.o
    0x0001c130   0x0000000e   Code   RO          686    i.ble_srv_is_notification_enabled  ble_srv_common.o
    0x0001c13e   0x00000002   PAD
    0x0001c140   0x00000054   Code   RO          400    i.bsp_btn_ble_init  bsp_btn_ble.o
    0x0001c194   0x00000078   Code   RO          401    i.bsp_btn_ble_on_ble_evt  bsp_btn_ble.o
    0x0001c20c   0x00000014   Code   RO          402    i.bsp_btn_ble_sleep_mode_prepare  bsp_btn_ble.o
    0x0001c220   0x000000a0   Code   RO          259    i.bsp_button_event_handler  bsp.o
    0x0001c2c0   0x0000002c   Code   RO          260    i.bsp_button_is_pressed  bsp.o
    0x0001c2ec   0x00000044   Code   RO            5    i.bsp_event_handler  main.o
    0x0001c330   0x00000048   Code   RO          264    i.bsp_event_to_button_action_assign  bsp.o
    0x0001c378   0x0000001c   Code   RO          265    i.bsp_indication_set  bsp.o
    0x0001c394   0x000000a8   Code   RO          267    i.bsp_init          bsp.o
    0x0001c43c   0x00000170   Code   RO          268    i.bsp_led_indication  bsp.o
    0x0001c5ac   0x0000003c   Code   RO          269    i.bsp_wakeup_buttons_set  bsp.o
    0x0001c5e8   0x0000000c   Code   RO          271    i.button_timer_handler  bsp.o
    0x0001c5f4   0x0000001c   Code   RO          967    i.channel_free      nrf_drv_gpiote.o
    0x0001c610   0x00000048   Code   RO          968    i.channel_port_alloc  nrf_drv_gpiote.o
    0x0001c658   0x00000010   Code   RO          969    i.channel_port_get  nrf_drv_gpiote.o
    0x0001c668   0x00000028   Code   RO          783    i.clock_clk_started_notify  nrf_drv_clock.o
    0x0001c690   0x000000a8   Code   RO         1542    i.compare_reg_update  app_timer.o
    0x0001c738   0x00000088   Code   RO          441    i.conn_int_encode   ble_advdata.o
    0x0001c7c0   0x00000008   Code   RO            6    i.conn_params_error_handler  main.o
    0x0001c7c8   0x00000068   Code   RO          623    i.conn_params_negotiation  ble_conn_params.o
    0x0001c830   0x00000060   Code   RO         1335    i.detection_delay_timeout_handler  app_button.o
    0x0001c890   0x00000040   Code   RO         1543    i.elapsed_ticks_acquire  app_timer.o
    0x0001c8d0   0x00000014   Code   RO         1467    i.fifo_get          app_fifo.o
    0x0001c8e4   0x00000012   Code   RO         1468    i.fifo_put          app_fifo.o
    0x0001c8f6   0x0000000e   Code   RO         1911    i.fputc             retarget.o
    0x0001c904   0x00000018   Code   RO         1793    i.fs_queued_op_count_get  fstorage.o
    0x0001c91c   0x00000050   Code   RO         1336    i.gpiote_event_handler  app_button.o
    0x0001c96c   0x00000080   Code   RO         1946    i.intern_softdevice_events_execute  softdevice_handler.o
    0x0001c9ec   0x0000001c   Code   RO          624    i.is_conn_params_ok  ble_conn_params.o
    0x0001ca08   0x00000048   Code   RO         2083    i.is_manual_peripheral_setup_needed  system_nrf51.o
    0x0001ca50   0x00000018   Code   RO          272    i.leds_timer_handler  bsp.o
    0x0001ca68   0x000000ac   Code   RO         1544    i.list_deletions_handler  app_timer.o
    0x0001cb14   0x000000bc   Code   RO         1545    i.list_insertions_handler  app_timer.o
    0x0001cbd0   0x00000204   Code   RO            7    i.main              main.o
    0x0001cdd4   0x00000068   Code   RO          442    i.manuf_specific_data_encode  ble_advdata.o
    0x0001ce3c   0x0000009e   Code   RO          443    i.name_encode       ble_advdata.o
    0x0001ceda   0x00000010   Code   RO          787    i.nrf_clock_event_check  nrf_drv_clock.o
    0x0001ceea   0x00000002   PAD
    0x0001ceec   0x00000030   Code   RO         1546    i.nrf_delay_us      app_timer.o
    0x0001cf1c   0x0000003c   Code   RO          794    i.nrf_drv_clock_init  nrf_drv_clock.o
    0x0001cf58   0x00000034   Code   RO          800    i.nrf_drv_clock_on_sd_enable  nrf_drv_clock.o
    0x0001cf8c   0x0000000c   Code   RO          801    i.nrf_drv_clock_on_soc_event  nrf_drv_clock.o
    0x0001cf98   0x00000060   Code   RO          933    i.nrf_drv_common_irq_enable  nrf_drv_common.o
    0x0001cff8   0x00000098   Code   RO          972    i.nrf_drv_gpiote_in_event_enable  nrf_drv_gpiote.o
    0x0001d090   0x000000a4   Code   RO          973    i.nrf_drv_gpiote_in_init  nrf_drv_gpiote.o
    0x0001d134   0x00000014   Code   RO          974    i.nrf_drv_gpiote_in_is_set  nrf_drv_gpiote.o
    0x0001d148   0x0000005c   Code   RO          976    i.nrf_drv_gpiote_init  nrf_drv_gpiote.o
    0x0001d1a4   0x00000010   Code   RO          977    i.nrf_drv_gpiote_is_init  nrf_drv_gpiote.o
    0x0001d1b4   0x000000e4   Code   RO         1169    i.nrf_drv_uart_init  nrf_drv_uart.o
    0x0001d298   0x0000005c   Code   RO         1170    i.nrf_drv_uart_rx   nrf_drv_uart.o
    0x0001d2f4   0x0000002c   Code   RO         1173    i.nrf_drv_uart_rx_enable  nrf_drv_uart.o
    0x0001d320   0x000000a8   Code   RO         1174    i.nrf_drv_uart_rx_for_uart  nrf_drv_uart.o
    0x0001d3c8   0x00000034   Code   RO         1175    i.nrf_drv_uart_tx   nrf_drv_uart.o
    0x0001d3fc   0x0000008c   Code   RO         1177    i.nrf_drv_uart_tx_for_uart  nrf_drv_uart.o
    0x0001d488   0x00000018   Code   RO         1178    i.nrf_drv_uart_tx_in_progress  nrf_drv_uart.o
    0x0001d4a0   0x00000024   Code   RO          989    i.nrf_gpio_cfg      nrf_drv_gpiote.o
    0x0001d4c4   0x00000024   Code   RO         1180    i.nrf_gpio_cfg      nrf_drv_uart.o
    0x0001d4e8   0x00000012   Code   RO         1182    i.nrf_gpio_cfg_input  nrf_drv_uart.o
    0x0001d4fa   0x00000014   Code   RO         1183    i.nrf_gpio_cfg_output  nrf_drv_uart.o
    0x0001d50e   0x00000002   PAD
    0x0001d510   0x00000020   Code   RO          991    i.nrf_gpio_cfg_sense_set  nrf_drv_gpiote.o
    0x0001d530   0x00000010   Code   RO          273    i.nrf_gpio_pin_clear  bsp.o
    0x0001d540   0x00000010   Code   RO          274    i.nrf_gpio_pin_read  bsp.o
    0x0001d550   0x00000010   Code   RO          275    i.nrf_gpio_pin_set  bsp.o
    0x0001d560   0x00000018   Code   RO          276    i.nrf_gpio_pin_toggle  bsp.o
    0x0001d578   0x00000010   Code   RO          992    i.nrf_gpiote_event_clear  nrf_drv_gpiote.o
    0x0001d588   0x00000014   Code   RO          993    i.nrf_gpiote_event_is_set  nrf_drv_gpiote.o
    0x0001d59c   0x0000000a   Code   RO         1184    i.nrf_uart_event_check  nrf_drv_uart.o
    0x0001d5a6   0x00000010   Code   RO         1185    i.nrf_uart_int_enable_check  nrf_drv_uart.o
    0x0001d5b6   0x00000030   Code   RO            8    i.nus_data_handler  main.o
    0x0001d5e6   0x00000020   Code   RO            9    i.on_adv_evt        main.o
    0x0001d606   0x00000002   PAD
    0x0001d608   0x000000d0   Code   RO           10    i.on_ble_evt        main.o
    0x0001d6d8   0x00000020   Code   RO           11    i.on_conn_params_evt  main.o
    0x0001d6f8   0x00000018   Code   RO          994    i.pin_in_use_by_port  nrf_drv_gpiote.o
    0x0001d710   0x00000018   Code   RO          995    i.pin_in_use_by_te  nrf_drv_gpiote.o
    0x0001d728   0x00000044   Code   RO         1547    i.rtc1_stop         app_timer.o
    0x0001d76c   0x00000026   Code   RO         1186    i.rx_byte           nrf_drv_uart.o
    0x0001d792   0x0000009e   Code   RO          742    i.rx_char_add       ble_nus.o
    0x0001d830   0x00000014   Code   RO         1187    i.rx_done_event     nrf_drv_uart.o
    0x0001d844   0x0000001a   Code   RO         1188    i.rx_enable         nrf_drv_uart.o
    0x0001d85e   0x00000002   PAD
    0x0001d860   0x00000084   Code   RO         1948    i.sd_nvic_EnableIRQ  softdevice_handler.o
    0x0001d8e4   0x0000008e   Code   RO          444    i.service_data_encode  ble_advdata.o
    0x0001d972   0x00000002   PAD
    0x0001d974   0x00000058   Code   RO          531    i.set_adv_mode_fast  ble_advertising.o
    0x0001d9cc   0x00000054   Code   RO          532    i.set_adv_mode_slow  ble_advertising.o
    0x0001da20   0x00000028   Code   RO           12    i.sleep_mode_enter  main.o
    0x0001da48   0x00000014   Code   RO         1949    i.softdevice_ble_evt_handler_set  softdevice_handler.o
    0x0001da5c   0x00000014   Code   RO         1950    i.softdevice_enable  softdevice_handler.o
    0x0001da70   0x00000028   Code   RO         1951    i.softdevice_enable_get_default_config  softdevice_handler.o
    0x0001da98   0x00000008   Code   RO         1952    i.softdevice_fault_handler  softdevice_handler.o
    0x0001daa0   0x00000058   Code   RO         1953    i.softdevice_handler_init  softdevice_handler.o
    0x0001daf8   0x0000000c   Code   RO         1954    i.softdevice_handler_is_enabled  softdevice_handler.o
    0x0001db04   0x00000084   Code   RO         1548    i.timer_list_handler  app_timer.o
    0x0001db88   0x00000010   Code   RO         1549    i.timer_list_handler_sched  app_timer.o
    0x0001db98   0x00000040   Code   RO         1550    i.timer_list_insert  app_timer.o
    0x0001dbd8   0x00000048   Code   RO         1551    i.timer_stop_op_schedule  app_timer.o
    0x0001dc20   0x00000080   Code   RO         1552    i.timer_timeouts_check  app_timer.o
    0x0001dca0   0x0000001e   Code   RO         1189    i.tx_byte           nrf_drv_uart.o
    0x0001dcbe   0x00000080   Code   RO          743    i.tx_char_add       ble_nus.o
    0x0001dd3e   0x00000018   Code   RO         1190    i.tx_done_event     nrf_drv_uart.o
    0x0001dd56   0x00000002   PAD
    0x0001dd58   0x00000060   Code   RO           13    i.uart_event_handle  main.o
    0x0001ddb8   0x000000b0   Code   RO         1685    i.uart_event_handler  app_uart_fifo.o
    0x0001de68   0x00000128   Code   RO         1191    i.uart_irq_handler  nrf_drv_uart.o
    0x0001df90   0x0000000a   Code   RO          445    i.uint16_encode     ble_advdata.o
    0x0001df9a   0x00000002   PAD
    0x0001df9c   0x00000064   Code   RO          625    i.update_timeout_handler  ble_conn_params.o
    0x0001e000   0x0000002c   Code   RO         1553    i.user_op_alloc     app_timer.o
    0x0001e02c   0x00000030   Code   RO          446    i.uuid_list_encode  ble_advdata.o
    0x0001e05c   0x000000ae   Code   RO          447    i.uuid_list_sized_encode  ble_advdata.o
    0x0001e10a   0x00000002   PAD
    0x0001e10c   0x00000018   Code   RO          533    i.whitelist_has_entries  ble_advertising.o
    0x0001e124   0x0000001c   Data   RO           15    .constdata          main.o
    0x0001e140   0x0000003c   Data   RO          281    .constdata          bsp.o
    0x0001e17c   0x00000004   Data   RO          628    .constdata          ble_conn_params.o
    0x0001e180   0x00000010   Data   RO          744    .constdata          ble_nus.o
    0x0001e190   0x00000008   Data   RO         1338    .constdata          app_button.o
    0x0001e198   0x00000020   Data   RO         1687    .constdata          app_uart_fifo.o
    0x0001e1b8   0x00000020   Data   RO         2428    Region$$Table       anon$$obj.o


    Execution Region RW_IRAM1 (Base: 0x20001fe8, Size: 0x00000f38, Max: 0x00006018, ABSOLUTE)

    Base Addr    Size         Type   Attr      Idx    E Section Name        Object

    0x20001fe8   0x00000008   Data   RW           16    .data               main.o
    0x20001ff0   0x00000014   Data   RW          282    .data               bsp.o
    0x20002004   0x00000008   Data   RW          403    .data               bsp_btn_ble.o
    0x2000200c   0x00000030   Data   RW          537    .data               ble_advertising.o
    0x2000203c   0x00000014   Data   RW          629    .data               ble_conn_params.o
    0x20002050   0x00000014   Data   RW         1339    .data               app_button.o
    0x20002064   0x00000020   Data   RW         1554    .data               app_timer.o
    0x20002084   0x00000010   Data   RW         1688    .data               app_uart_fifo.o
    0x20002094   0x0000000c   Data   RW         1746    .data               app_util_platform.o
    0x200020a0   0x00000004   Data   RW         1912    .data               retarget.o
    0x200020a4   0x00000014   Data   RW         1960    .data               softdevice_handler.o
    0x200020b8   0x00000004   Data   RW         2084    .data               system_nrf51.o
    0x200020bc   0x000002f0   Zero   RW           14    .bss                main.o
    0x200023ac   0x00000020   Zero   RW          277    .bss                bsp.o
    0x200023cc   0x00000020   Zero   RW          278    .bss                bsp.o
    0x200023ec   0x0000000c   Zero   RW          279    .bss                bsp.o
    0x200023f8   0x00000020   Zero   RW          280    .bss                bsp.o
    0x20002418   0x00000167   Zero   RW          534    .bss                ble_advertising.o
    0x2000257f   0x00000001   PAD
    0x20002580   0x00000020   Zero   RW          535    .bss                ble_advertising.o
    0x200025a0   0x00000020   Zero   RW          536    .bss                ble_advertising.o
    0x200025c0   0x00000020   Zero   RW          626    .bss                ble_conn_params.o
    0x200025e0   0x0000001c   Zero   RW          627    .bss                ble_conn_params.o
    0x200025fc   0x00000014   Zero   RW          803    .bss                nrf_drv_clock.o
    0x20002610   0x00000048   Zero   RW          996    .bss                nrf_drv_gpiote.o
    0x20002658   0x0000001c   Zero   RW         1192    .bss                nrf_drv_uart.o
    0x20002674   0x00000020   Zero   RW         1337    .bss                app_button.o
    0x20002694   0x00000020   Zero   RW         1686    .bss                app_uart_fifo.o
    0x200026b4   0x00000068   Zero   RW         1802    .bss                fstorage.o
    0x2000271c   0x00000004   PAD
    0x20002720   0x00000800   Zero   RW         2072    STACK               arm_startup_nrf51.o


==============================================================================

Image component sizes


      Code (inc. data)   RO Data    RW Data    ZI Data      Debug   Object Name

       328         34          8         20         32       8922   app_button.o
        24          4          0          0          0       2181   app_error.o
        28         10          0          0          0       7094   app_error_weak.o
       122          0          0          0          0       4838   app_fifo.o
      1608        158          0         32          0      31171   app_timer.o
       472         42         32         16         32      10290   app_uart_fifo.o
       104         20          0         12          0       6374   app_util_platform.o
        56         18        192          0       2048        712   arm_startup_nrf51.o
      1368          6          0          0          0      18464   ble_advdata.o
      1060         72          0         48        423      11196   ble_advertising.o
       460         60          4         20         60       5488   ble_conn_params.o
       566         12         16          0          0       5538   ble_nus.o
        14          0          0          0          0       1390   ble_srv_common.o
      1044        130         60         20        108      15633   bsp.o
       284         10          0          8          0       4629   bsp_btn_ble.o
        24          6          0          0        104       3740   fstorage.o
      1088        114         28          8        752      98999   main.o
       264         36          0          0         20       9792   nrf_drv_clock.o
        96         18          0          0          0       8680   nrf_drv_common.o
      1048        120          0          0         72      22768   nrf_drv_gpiote.o
      1302         58          0          0         28      27882   nrf_drv_uart.o
        14          0          0          4          0       2846   retarget.o
       508         66          0         20          0      19511   softdevice_handler.o
       232         36          0          4          0       2351   system_nrf51.o

    ----------------------------------------------------------------------
     12136       1030        372        212       3684     330489   Object Totals
         0          0         32          0          0          0   (incl. Generated)
        22          0          0          0          5          0   (incl. Padding)

    ----------------------------------------------------------------------

      Code (inc. data)   RO Data    RW Data    ZI Data      Debug   Library Member Name

         0          0          0          0          0          0   entry.o
         0          0          0          0          0          0   entry10a.o
         0          0          0          0          0          0   entry11a.o
         8          4          0          0          0          0   entry2.o
         4          0          0          0          0          0   entry5.o
         0          0          0          0          0          0   entry7b.o
         0          0          0          0          0          0   entry8b.o
         8          4          0          0          0          0   entry9a.o
        30          0          0          0          0          0   handlers.o
        36          8          0          0          0         68   init.o
        36          0          0          0          0         60   memcpya.o
        36          0          0          0          0        100   memseta.o
        50          8          0          0          0        144   printfb.o
        44          0          0          0          0         72   uidiv.o

    ----------------------------------------------------------------------
       252         24          0          0          0        444   Library Totals
         0          0          0          0          0          0   (incl. Padding)

    ----------------------------------------------------------------------

      Code (inc. data)   RO Data    RW Data    ZI Data      Debug   Library Name

       252         24          0          0          0        444   mc_p.l

    ----------------------------------------------------------------------
       252         24          0          0          0        444   Library Totals

    ----------------------------------------------------------------------

==============================================================================


      Code (inc. data)   RO Data    RW Data    ZI Data      Debug   

     12388       1054        372        212       3684     324529   Grand Totals
     12388       1054        372        212       3684     324529   ELF Image Totals
     12388       1054        372        212          0          0   ROM Totals

==============================================================================

    Total RO  Size (Code + RO Data)                12760 (  12.46kB)
    Total RW  Size (RW Data + ZI Data)              3896 (   3.80kB)
    Total ROM Size (Code + RO Data + RW Data)      12972 (  12.67kB)

==============================================================================

